:020000040800F2
:1000000080110020BD0A0008492F0008A90A000835
:10001000A90A0008A90A0008A90A000800000000AF
:100020000000000000000000000000007D0B000840
:10003000A90A0008000000001D0B0008C11A0008F2
:10004000050D0008050D0008050D0008050D000848
:10005000050D0008050D0008050D0008050D000838
:10006000050D0008050D0008050D0008050D000828
:10007000050D0008050D0008050D0008050D000818
:10008000050D0008050D0008050D0008050D000808
:10009000050D0008050D0008050D0008050D0008F8
:1000A000050D0008050D0008050D0008050D0008E8
:1000B000050D0008050D0008050D0008050D0008D8
:1000C000050D0008050D0008050D0008050D0008C8
:1000D000050D0008050D0008050D0008050D0008B8
:1000E000050D0008050D0008050D0008050D0008A8
:1000F000050D0008050D0008050D0008050D000898
:10010000050D0008050D0008050D0008050D000887
:10011000050D0008050D0008050D0008050D000877
:10012000050D0008050D0008050D0008050D000867
:10013000050D0008050D0008050D0008050D000857
:10014000050D0008050D0008050D0008050D000847
:10015000050D0008050D0008050D0008050D000837
:10016000050D0008050D0008050D0008050D000827
:10017000050D0008050D0008050D0008050D000817
:08018000050D0008050D000843
:1001880053B94AB9002908BF00281CBF4FF0FF31F6
:100198004FF0FF3000F00CB8ADF1080C6DE904CE5B
:1001A80000F008F8DDF804E0DDE9022304B0704748
:1001B800704700BF2DE9F04786468C460846089EE2
:1001C800154674461946002B40F0C2808542B2FAA3
:1001D80082F245D94AB1C2F1200300FA02FC2EFA94
:1001E80003F3954043EA0C0C94404FEA154EA8B22D
:1001F800BCFBFEF8230C0EFB18CC08FB00F943EA05
:100208000C43994528D9EB1808F1FF3704D29945D2
:1002180002D9A8F102072B44A3EB0903A4B2B3FB4C
:10022800FEFC0EFB1C330CFB00F044EA0344A04226
:1002380014D92C190CF1FF3304D2A04202D9ACF125
:1002480002032C44241A43EA07401EB1D440002379
:1002580034607360BDE8F0874746DDE76346F1E741
:1002680092BB431B01214FEA154EAFB2B3FBFEFC14
:10027800200C0EFB1C330CFB07F840EA034398459F
:1002880062D9EB180CF1FF3004D2984502D9ACF1D1
:1002980002002B44A3EB0803A4B2B3FBFEFC0EFB45
:1002A8001C330CFB07F744EA0344A7424ED92C1928
:1002B8000CF1FF3304D2A74202D9ACF102032C445B
:1002C800E41B43EA0040C0E7C2F1200320FA03F12F
:1002D800954090402EFA03F303434FEA154EAFB210
:1002E800B1FBFEFC0EFB1C10190C0CFB07F841EAD5
:1002F8000041884504FA02F422D969180CF1FF304C
:1003080004D2884502D9ACF102002944A1EB0801C6
:100318009BB2B1FBFEFC0EFB1C110CFB07F743EA7A
:1003280001439F420ED9EB180CF1FF3104D29F42D2
:1003380002D9ACF102012B44DB1B41EA004192E7F0
:100348006046E3E76146F7E76046A3E76346B7E739
:10035800834206D916B9002108467BE7C6E900E0C2
:10036800F9E7B3FA83F78FB9834201D3724508D806
:10037800BEEB020460EB030301209C461EB900217A
:1003880068E73846FAE7C6E9004CF8E7C7F1200CF9
:10039800BB4022FA0CF41C432EFA0CF120FA0CF3A1
:1003A800B84001434FEA14490EFA07F5B3FBF9F8D0
:1003B8001FFA84FE09FB18300B0C08FB0EFA43EAFF
:1003C80000439A4502FA07F240D9E31808F1FF30D2
:1003D80004D29A4502D9A8F102002344A3EB0A03E8
:1003E80089B2B3FBF9F809FB183308FB0EFE41EAA2
:1003F80003418E452CD9611808F1FF3304D28E458C
:1004080002D9A8F10203214443EA0040A0FB029864
:10041800A1EB0E014145CE46434602D306D14D45D8
:1004280004D2B9EB020E68EB04030138002EA6D003
:10043800B5EB0E0261EB030101FA0CFC22FA07F39B
:100448004CEA0303F940C6E9003198E74046C5E79E
:100458004346D9E708B5064D064C2B68204602F0FE
:100468005DFD002142F2107003F0A7F9F5E700BF27
:10047800C43E0008E6400008014B1B68184700BF4F
:1004880000000020014B1860704700BF00000020EA
:1004980030B585B004460D4610220021684603F0A9
:1004A80005FA02238DF802302A46044B01932146AF
:1004B800684602F06BFA05B030BD00BF8104000841
:1004C80080B505460E461746984601F0DBFF034601
:1004D80003F058FADFF81890044649F8003042460D
:1004E80030463946A84754F8090000F0FDFA00BF25
:1004F80008000000034A536823F0020353600020F9
:10050800704700BF002004E0EFF31180102383F34D
:100518001288BFF36F8F094B1A683AB9084A1168F5
:1005280041F4807111601168C905FCD51A6801325F
:100538001A6080F31188BFF36F8F70472402002080
:1005480000700040EFF31180102383F31288BFF38B
:100558006F8F114B1A689AB9BFF35B8F0F4B01224B
:1005680053E8001F002904D143E8002CBCF1000F18
:10057800F6D1BFF35B8F80F31188BFF36F8F70479D
:10058800012A01BF06490A6822F480720A601A68C3
:10059800013A1A60EFE700BF240200202002002081
:1005A80000700040084B1A6842F400721A601A681A
:1005B80042F480621A601A6842F480721A60034B2F
:1005C800034A1A60704700BF002002403400002030
:1005D80000093D00014B036000207047C83E000839
:1005E80038B505460C4699B1D1E901230F48096889
:1005F80002F094FCD4E90423E1680D4802F08EFC73
:10060800E1690C4802F08AFCA1690B4802F086FCFB
:10061800012D05D1EFF305810848103902F07EFC61
:1006280021462846BDE8384001F0B2BBEF4000083B
:100638001F4100084F4100085F4100088E41000833
:1006480030BFFFF7FDBF00BF2DE9F0410B4EDFF8CB
:10065800308006EB0807CC1B054632460949204680
:1006680003F016F9A01942460021083C03F01EF9D0
:100678002C6707F10800BDE8F08100BF000000000A
:1006880004000000C43E0008054B5A699B689A4262
:100698001FBF044A536843F080535360704700BF3C
:1006A8007003002000ED00E02DE9F843324D80464C
:1006B80032488946174602F031FCAB6ADE0622D57D
:1006C8002F4802F02BFC1124AB6A1D0703D52D48D7
:1006D80002F024FC1224284DAB6A980715D52A4845
:1006E80002F01CFC6E6BAB6A190642D527483146EE
:1006F80002F014FCB9F1000F03D0AB6A23F08003B9
:10070800AB62132403E01024DEE76FF015061A4DE0
:10071800AB6ADA0703D51E4802F000FC1424AB6A62
:100728009B0603D51B4802F0F9FB1524124B9A6A65
:10073800D50602D49A6A90070AD55B68190507D5C9
:100748004146304600F094FA10B180F3098802243B
:10075800094B9A6A920642BF5A6A22F400525A62B8
:100768009A6A42F0FF029A6200233B702046BDE875
:10077800F8836FF01506C4E700ED00E0A241000819
:10078800B9410008ED410008014200081A4200087A
:10079800314200085142000810B51D4C1D4802F0B6
:1007A800BDFBA36A990130D51B4802F0B7FB1E2098
:1007B800A36ADA0103D5194802F0B0FB1F20144CD4
:1007C800A36A1B0303D5164802F0A8FB2120A36ADD
:1007D800590303D5134802F0A1FB22200C4CA36A4D
:1007E8009A0303D5104802F099FB2320A36ADB0380
:1007F80003D50E4802F092FB2420054A936A6FEA5B
:1008080003436FEA1343936210BD1D20D0E700BF76
:1008180000ED00E0814200089A420008AE4200085C
:10082800C9420008E84200080E43000829430008AE
:1008380070B5244C064624480D4602F06FFBA36AA7
:10084800D90435D5214802F069FB1720A36A1A0597
:1008580003D51F4802F062FB18201A4CA36A9B05B7
:100868000FD51C4802F05AFBA16BA36A180407D5E0
:10087800194802F053FB1EB1A36A23F40043A36294
:100888001920104CA36A590503D5144802F046FBF9
:100898001A20A36ADA050DD5114802F03FFB1B2088
:1008A800084A936A43F47F43936200232B7070BD18
:1008B8001620CBE7A36A9B04F2D50A4802F02EFB68
:1008C8001C20EDE700ED00E0554300086C430008EC
:1008D800ED4100087E43000898430008AE43000835
:1008E800CA430008514200082DE9F0415B4B5F689C
:1008F8008AB00446C7F30806002585F31188BFF3BC
:100908006F8F02F07F43B3F17F4F06D102F00C03E3
:10091800082B13D1524802F001FB00252C464FF05A
:100928000008F31E8DF80780092B00F28680DFE8A7
:1009380003F00A7A7E7684848484848210074CBF0C
:100948000C460125EBE74748444E02F0E7FA8DF8DC
:100958000780F36A9A0704D5434802F0DFFA0023B8
:1009680030E0F36A002B01DA4048F6E7F36A5B00EF
:10097800F5D53F4802F0D2FA7369A26943F480734F
:100988007361BFF34F8FBFF36F8F736932F8022C17
:1009980023F480737361BFF34F8FBFF36F8F4DF6EE
:1009A80002739A4209D0B36ADBB253B30DF107025E
:1009B80001212046FFF778FE33E021682D4802F038
:1009C800ADFA23689DF80720C2B902AE04F12007EA
:1009D80020686168324603C20834BC421646F7D123
:1009E800099AB5B3C2F3080121B96FEA52226FEA36
:1009F8004222099202A91846FFF7F2FD0AB0BDE8A3
:100A0800F081B36A13F47F4F05D00DF1070101207F
:100A1800FFF70EFF05E0B36AB3F5803F9FD3FFF7FA
:100A2800BBFE0346CEE70DF107020021C1E70DF139
:100A380007010020ECE710488FE7104B10491148D8
:100A480017F4F87FA6F1100218BF194602F066FAEB
:100A580085E722F4FF7222F00102CAE700ED00E008
:100A6800114400083D440008554400087744000834
:100A780086440008A6440008C3440008F843000858
:100A8800E3430008E8440008044B5A6942F01002A6
:100A98005A615A6922F008025A61704700ED00E075
:100AA800EFF30880EFF3098101B57246FFF71CFFE9
:100AB80001BD00BF0A4880F30888102080F3118820
:100AC80008484FF40461401880F30988EFF3148054
:100AD8000221084380F31488BFF36F8F00F090F869
:100AE80080110020C0030020084B9B6883420BD173
:100AF800EFF3058343B1064B5A6842F080525A60BF
:100B08005A6A22F400425A6201F0C2BC7003002003
:100B180000ED00E014498A684FF030001044EFF30C
:100B2800098C80E8F01F102080F31288BFF36F8FC4
:100B38000E4F4FF000664A698A603E60106F0C4C99
:100B48002060506F0023536780F3118804B5104666
:100B580000F0F2F8BDE8044002F1300090E8F01F20
:100B68008CF30988704700007003002004ED00E052
:100B7800280200201EF0040F0CBFEFF30880EFF3EB
:100B88000980816911F8021C0229FFD001B572465B
:100B980002F0D2F901BD00BF40B2002807DB044AC9
:100BA8004109012300F01F00834042F821307047BB
:100BB80000E100E040B20028A8BF00F1604001F168
:100BC8000101B8BF064B4FEA0111ACBF00F5614007
:100BD80000F00F00C9B2B4BF195480F80013704771
:100BE80014ED00E0044B054A23F07F039360BFF344
:100BF8004F8FBFF36F8F70470000000800ED00E0D3
:100C080008B5FFF7EFFF0B4AD2F8883023F47003DA
:100C1800C2F88830EFF3148323F0040383F31488B5
:100C2800BFF36F8F01F044F901F058FD00F05AF856
:100C380001F082F900ED00E042F8203C009B42F808
:100C48001C3C0A49019B42F8183C029B42F8143CA0
:100C580021F001014FF0807342F8043C42F8081C6F
:100C68000023203A02654367704700BFC9040008A3
:100C7800094A0346906870B113F1160F006E05D04B
:100C8800A0F140029A4205D8834203D2814228BF8C
:100C980000207047002070477003002008B51546F3
:100CA8000B4A0C4B9060026F1A600E4600F044F835
:100CB8002C4686F309880020034B984720460021DC
:100CC80000220023014C2047652F0008C9040008B2
:100CD8007003002028020020014B10221A6170477F
:100CE80000ED00E0044800231021C2180133522B04
:100CF80082F80013F9D1704700E100E008B5EFF37E
:100D08000583064A103B02EBC30152F833004968D9
:100D18008847BDE80840FFF7B7BC00BFD03B0008D4
:100D2800024B034A0348012100F076B800800120F5
:100D380000000020C83E0008026E054B403A1A60C9
:100D4800044A4021C3E901121846012100F06EB897
:100D58002C02002000000B15084AC2F898000B6806
:100D680023F01F03034343F01003C2F89C308B6841
:100D780043F00103C2F8A030704700BF00ED00E067
:100D88002DE9F043DFF8608085B00E461F46044623
:100D98004FF00009B14523DA6068D8B13FB1411E70
:100DA80008421BD11F2819D92368194216D1236874
:100DB800019302F0E7F8A36803430393D8F890502F
:100DC800C5F30725D0B2013DA84207D801A9FFF70E
:100DD800C3FF421C09F101090C34DBE76FF015026F
:100DE800104605B0BDE8F08300ED00E0044B052295
:100DF800C3F89420BFF34F8FBFF36F8F704700BFC6
:100E080000ED00E0BFF35F8F024B0022C3F894208F
:100E1800704700BF00ED00E010B5034C01232278B5
:100E2800FFF7AEFF207010BD9C03002008B50B4AE9
:100E380000231278FFF7A4FF10F1160F07D0084A15
:100E48000021D2F89030C3F30723984200DB08BD95
:100E5800C2F89800C2F8A0100130F2E79C03002005
:100E680000ED00E02DE9F043534B544CD3F890309B
:100E78002568C3F307239D4285B000F29A80FFF7E7
:100E8800C1FF00200C2685421AD14D4C4D4F2570CC
:100E98006846FFF79FFBDFF82081DFF82C910646B4
:100EA8000025AE4213D1237843490020D1F8902081
:100EB800C2F30722934276DBFFF798FF002042E057
:100EC800616806FB0011FFF747FF0130DBE7009878
:100ED80000EB05114FEA051CCB683B40B3F5000F4A
:100EE80048D00AD8B3F5001F30D0B3F5800F36D0FC
:100EF800B3F5801F10D00135D3E7B3F1807F42D01E
:100F0800B3F1007FF7D150F80C3088684A6802F0D6
:100F180039F840F4802009E050F80C3088684A68B5
:100F280002F030F840F0885040F43020CDE9012339
:100F38000390D8F890302078C3F30723013B9842F8
:100F48002AD96FF0150005B0BDE8F08350F80C30D1
:100F580088684A6802F016F840EA0900E6E750F89F
:100F68000C3088684A6802F00DF840F0C06040F420
:100F78000030DBE750F80C3088684A6802F002F865
:100F880040F08270D2E750F80C3088684A6801F067
:100F9800F9FF40F08870C9E701A9FFF7DDFE237863
:100FA80001332370A7E7C1F89830C1F8A0000133D6
:100FB8007CE74FF0FF30C6E700ED00E0D43E0008C4
:100FC8009C0300200000F0FF0000081108B5024B48
:100FD8001B689847002008BD38020020034B044ACC
:100FE8001860937843F0020393707047380200202A
:100FF8000400002008B50649064821F00701C1F1A0
:10100800005202F5C03201F04AFF002008BD00BFBF
:10101800C71100203C020020044B18440023013370
:10102800994200F8012BFADC704700BF4400002009
:101038002DE9F843124F06464FF000094FF001081A
:10104800347854FA89F5284600F0C8F870B1284673
:1010580000F0D8F857F8353043B107EBC5054C44D4
:1010680004F01F04696808FA04F09847727809F1D7
:1010780001095FFA89F39A42E2D2BDE8F88300BF1A
:1010880048020020034660B1B0FA80F2C2F11F02A4
:10109800D2B205498856054A11680B431360FFF719
:1010A8007BBDFF22F5E700BF44000020000401409B
:1010B800024A136823EA00031360704700040140E2
:1010C800032921D8DFE801F0020C10190F4B9A68A8
:1010D80022EA00029A60DA6822EA0002DA607047BF
:1010E8000A4B9A680243F5E7084BDA680243DA606C
:1010F8009A6822EA00029A607047044B9A68024391
:101108009A60DA681043D860704700BF0004014055
:1011180030B5B0B1B0FA80F3C3F11F03DBB20B48AE
:1011280050F833408C4204D100EBC3056D689542FA
:1011380005D044B940F8331000EBC30042600020EA
:1011480030BDFF23EBE76FF00F00F9E748020020FE
:1011580060B1B0FA80F3C3F11F03DBB2044A002187
:1011680042F8331002EBC30251607047FF23F5E7E2
:101178004802002000F00302043292000F2393403B
:1011880043EA900000F003030233064A52F8232092
:10119800030C02EA104093FAA3F3B3FA83F3D8409E
:1011A800704700BF0000014013B50B4C204602F009
:1011B80086FA58B101236022CDE90023A3681B6891
:1011C8003BB169462046984702B010BD6FF0120047
:1011D800FAE76FF05700F7E7303A00083F280DD8D4
:1011E80000F01F0201239340054A1F2894BF52694B
:1011F800526B93430CBF01200020704700207047BA
:101208000004014000F01F0201233F2803FA02F303
:1012180007D81F28044A02D8536100207047536337
:10122800FBE76FF01500704700040140024B186897
:10123800C0F38020704700BF0010024038B52D4B26
:1012480018680B88C3F30B030C2B0D46144624D8DF
:1012580013B96FF0850031E0013B0B2BF9D801A2DF
:1012680052F823F0B9120008E71200089D1200088E
:10127800DF1200085B120008E3120008B912000828
:10128800B9120008B91200085B120008C71200085A
:10129800D31200084FF4FA400AE003F6B873C3F318
:1012A8000B03182BD5D8144A22FA03F3DB07D0D541
:1012B80020602B68B3F5805F14D2002038BD00F0A1
:1012C800BBF814235843C008F2E700F0B5F814231C
:1012D80058438008ECE70948EAE70020E8E74FF4BC
:1012E8000040E5E7C3F313330133B0FBF3F02060AC
:1012F800E3E700BF34000020110111010024F400CD
:10130800F8B5494F494C00F0ADF8384601F046FFB2
:1013180000F09CFCA368464AC3F303131578D35C1A
:1013280047FA05F520FA03F6AE4202D2284600F045
:10133800DBFCFFF77BFF012807D0236843F48073A9
:101348002360FFF773FF0128FBD1D4F8943043F0F2
:101358000103C4F89430D4F894309807FBD5FFF70C
:10136800D3F8D4F8903043F00103C4F89030D4F89F
:1013780090309907FBD5FFF7E5F8A36803F00C0355
:101388000C2B1AD1FFF752FF012807D0236843F42A
:1013980080732360FFF74AFF0128FBD1A36823F07D
:1013A800030343F00103A360A36803F00C03042BB9
:1013B800FAD1A36823F0F003A360236823F08073B5
:1013C800236023689A01FCD4E36843F4C003E36014
:1013D800E36843F48013E36000F032F8236843F0D5
:1013E8008073236023689B01FCD5A36823F0F00376
:1013F800A360A36843F00303A360A36803F00C038E
:101408000C2BFAD1AE4202D3284600F06DFC094BF2
:101418001F60A36823F4E063A360A36823F4605308
:10142800A3600020F8BD00BF00B4C404001002404F
:10143800E545000834000020004870470024F40007
:10144800054B0649DA681140054A0A43DA60DA684A
:1014580042F08072DA607047001002408C80FFF919
:1014680002140002064B9A6D42F080529A659B6DF9
:1014780082B003F080530193019B02B0704700BF14
:101488000010024008B5074802F019F938B10648BB
:10149800FFF7A4FD0448FEF7F5FF002008BD6FF034
:1014A8001200FBE7903B0008B51400080A2838B57D
:1014B800074D044604D1AB680D215B682846984760
:1014C800AB6803485B68E1B29847204638BD00BF67
:1014D800903B00082DE9F843D0F80480D0F810902C
:1014E800D8F8080017460D461E4601F0A9FDB7F5C5
:1014F800001F044616D12846D8F80840FFF73AFEE0
:1015080084420CD1294601F09BFD0446FFF7D0FD2B
:101518002046FFF71DFE00212046FFF7D1FD0020E1
:10152800BDE8F883B7F5800F20D0B6F1806F19D0E9
:10153800B6F1C06F18D0B6F1007F1AD10226104953
:101548004A462046FFF7E4FDB0B9D8F80810284607
:1015580001F07BFD20463146FFF7B2FD2046FFF73C
:1015680091FDDCE70126EAE70326E8E76FF085004E
:10157800D6E76FF01500D3E76FF00F00D0E700BF94
:101588002334000838B50369044658600C4D2846D2
:1015980002F095F888B10B4A536843F4007353601E
:1015A800AB6861681B680C3123B12846984700EA8C
:1015B800E07038BD6FF05700F9E76FF01200F8E7F8
:1015C800303A0008007000402DE9F0471E4F0446ED
:1015D80000EBC1060025B44201D1002014E02068C8
:1015E800C30600F01F0911D4656845F02005C0F353
:1015F800481AC0F34420192823D857F82080B8F196
:10160800000F0DD16FF01200BDE8F087B9F1100F8F
:1016180004D0B9F1110FEAD16568E8E73025E6E7AB
:10162800404602F04CF80028ECD04B462A460AF017
:101638000F01404601F007FF002804F10804CADA48
:10164800E2E76FF01500DFE7943F0008F8B50C46B5
:10165800036941685D682379012B16D09F1E7E427D
:101668007E41B6026279022A9CBF474F37F8127052
:10167800A27988BF4FF40057022A09D0042A30D033
:10168800003B18BF01231B0306E04FF4C066E9E7DF
:10169800B3FA83F35B091B07E2790968012A14BFCF
:1016A8004FF0000C4FF4407CA5421DD10A6822F08F
:1016B800805222F4B05232431A430A604B6823F432
:1016C80040533B434B6043681A68936823F4407364
:1016D80043EA0C039360296801F015FF00EAE07003
:1016E800F8BD4FF48053D7E7D1F800E00EF4C06E90
:1016F80076451FBFD1F800E02EF4C06E4EEA06060C
:101708000E6041680E68716801F440518F421FBF36
:10171800716821F440513943716041680E6831683D
:1017280001F010218B421FBF316821F010210B43BB
:101738003360436819688B6803F440739C451FBF86
:101748008B6823F4407343EA0C038B6043681B687F
:101758009968490405D5032A09D09A6822F4804279
:1017680004E0032A03D19A6842F480429A6021680F
:101778002B68994205D001F0C6FE0028B0DB23682B
:101788002B600020ACE700BFE0400008F7B5056912
:10179800446806465048286001F091FF002800F090
:1017A80095802868E16883681B68002B00F09180A9
:1017B8009847002831DB206A01AA002101F058FE71
:1017C80000282ADB019B002219791868FFF7FCFE24
:1017D800002822DB756833692C685F68236823F06A
:1017E80001032360686801F06AFF00286ED0D5E91C
:1017F80001018368DB6803B1984754E8003F43F070
:101808000C0344E80032002AF7D139463046FFF786
:101818001DFF002803DA6FF0150003B0F0BD2B7D23
:101828001BB1A36843F00803A3606B7D1BB1636819
:1018380043F400436360AB7D1BB1636843F48033BA
:101848006360EB7D1BB1636843F4003363602B7EF8
:1018580083B3224B9C4213D0A3F574439C420FD010
:1018680003F580639C420BD003F580639C4207D04C
:1018780003F580639C4203D003F540539C42CAD1D0
:1018880073681A68936843F48043936023686A7E98
:1018980023F0787343EA425323602368AA7E23F433
:1018A800F81343EA02432360EB7E1BB1A36843F4B9
:1018B8000043A360236843F001032360E3699A02AD
:1018C800FCD5E3695B02FCD50020A6E76FF01200A7
:1018D800A3E76FF05700A0E7303A0008003801404E
:1018E800F8B5436891F805E01C6803690246087971
:1018F8005D688B7901280E4613D1BEF1020F61D9BC
:10190800022B1F464FF4C0614FF4005C72D0042BC9
:101918006BD0002873D0C31E012B68D86FF08500E8
:10192800F8BD02280AD1BEF1020F57D9022B1F4673
:101938004FF480610BD04FF4005CE8E7BEF1020F72
:101948004FD9022B1F464ED1002863D00021C31E59
:10195800012BE3D90020022703237345DED101F0D0
:10196800F7FDB842DAD1F379C3B1012B5AD12F4B25
:101978009C4213D0A3F574439C420FD003F58063B7
:101988009C420BD003F580639C4207D003F580632B
:101998009C4203D003F540539C42BFD1236823F0F7
:1019A8000103236031461046FFF750FE0028B5DBDF
:1019B800236843F00103236096E8030085E80300E9
:1019C8000020ADE74FF4C061194F022B37F81EC055
:1019D8001F469CD170B94FF0805010E04FF48061E1
:1019E800F2E70021F0E70021A5E7002896D14FF49F
:1019F800805004E0C31E012B90D902270020BCF5BB
:101A0800805F0BD0BCF5405F0AD0BCF1000FA3D1BA
:101A18000123A2E701464FF080509DE700239CE791
:101A280002239AE7032BA2D078E700BF00380140D1
:101A3800E040000810B54FF0E0230F499C691A698F
:101A480008689B690D4902F4803234B993B903469A
:101A58004AB90A681044C01A10BD002B08BF0346D3
:101A68000AB9A342F5D90A6802440A604FF0E02295
:101A78001269EEE70446F3E76C03002068030020D0
:101A88000A4B102283F82320094B4FF4FA521A60AC
:101A9800084B002018604FF0E02341F63F725A616E
:101AA80098611A6942F007021A61704700ED00E078
:101AB8006C03002068030020684620F007018D466B
:101AC80019B5FFF7B7FF114B1149D3E90042086870
:101AD800001942F10002C3E900020E4A00230B601C
:101AE800D2E900414FF4FA53001BB0FBF3F0434333
:101AF8001B1941F10001C2E9003100F0C9FEFEF7EF
:101B0800C3FDBDE819408546704700BF7800002036
:101B180068030020700000202DE9F041DFF8DC8028
:101B280099B1421C0BD14FF0E022136923F0010355
:101B380013614FF07F43C8F80030BDE8F081D8F852
:101B48000060012807DC00270BE0431CD8F8006080
:101B5800F7D14FF4036040F631039842A8BF184606
:101B6800471EEFF31185102383F31288BFF36F8F9D
:101B7800FFF760FF224C4FF0E0239969D4E9002376
:101B8800801843F10003C4E900031E4B00221A60C9
:101B98001D4B1A68831A2ED44FF4FA5C0CFB0733DA
:101BA80003F5F9531F33B3FBFCF7131A0CFB073388
:101BB800B3F5806F154A38BF4FF48063934228BF4E
:101BC80013464FF0E022C8F80030013B906953619A
:101BD800002393618142A1EB0003D4E9001238BFCE
:101BE8009B195B1842F10002C4E9003285F31188A1
:101BF800BFF36F8FA1E74FF48063E2E76C03002027
:101C080078000020680300207000002000DCFF003E
:101C180038B5EFF31185102383F31288BFF36F8F64
:101C2800084B1C68084B1B68E41AFFF703FF85F391
:101C38001188BFF36F8F4FF4FA532044B0FBF3F0D1
:101C480038BD00BF7800002070000020224B9A6841
:101C5800D96812F00C0205D00C2A15D101F0030145
:101C6800012918D119681D48090755BFD3F89410E0
:101C78001968C1F30321C1F3031150F8210012B10F
:101C88000C2A09D000207047042A22D0082A1448B8
:101C980018BF002070470020DA6802F00302022A09
:101CA80015D00F49032A08BF0846D968DA68C2F375
:101CB80006224243D868C0F34160C1F302110130E3
:101CC80001314000B2FBF1F2B2FBF0F07047054879
:101CD800EBE70448704700BF001002409840000836
:101CE80000127A000024F4001F4B421E9A4201D9C8
:101CF800012070471D4B1B6803F4C063B3F5007FD8
:101D08000FD11B4B98421AD81A4B984227D81A4B16
:101D1800984226D8194B984294BF002301230020EB
:101D280011E0174B98420CD8A3F5F403A3F5905390
:101D3800984214D8134B984213D8134BEBE704235B
:101D4800EDE70023012011490A6822F007021A432F
:101D58000A600A6802F007029342C9D17047032358
:101D6800DDE70223DBE700BFFFB3C40400700040D7
:101D78000090D003006CDC020048E8010024F40065
:101D880080BA8C01001BB700808D5B0000200240E8
:101D980038B5EFF31185102383F31288BFF36F8FE3
:101DA800064B9C6801F09EFC85F31188BFF36F8F8A
:101DB8002046BDE83840FEF797BE00BF70030020FC
:101DC80038B50A4B53F82040013053F82050A5424B
:101DD80000D838BD606830B1037FDB0701D401F05B
:101DE80084FC0834F3E723689847FAE7C8400008FA
:101DF80070B52A4B2A4C2B4D012286B003201A704D
:101E0800FFF7DEFF00F0BCFD0420FFF7D9FF2646F0
:101E1800AE4204F1300410D300F040FA204C224EB8
:101E2800AC4226D300F04EFAFEF714FB1F4A137B90
:101E380023F00103137306B070BD54F80C3C0593EE
:101E480054F8103C049354F8143C039354F8183C89
:101E5800029354F81C3C019354F8203C009354E935
:101E68000A2354E90C0100F0CFF854F8303C5E65C1
:101E7800CDE7D4E90A23B3F1FF3F08BFB2F1FF3F32
:101E880005D052EA0301206803D100F0D7FA3034B4
:101E9800C6E73146183000F06BFCF8E79D030020D8
:101EA800603E0008603E0008BB37000800010020C3
:101EB80008B50348034A0021121A01F02DFC08BD99
:101EC80070000020A003002070B5002386B0012216
:101ED800CDE90423134E144D01930F22CDE90232AC
:101EE8001249142303FB005506EBC01604464FF4B1
:101EF800C07000FB04110E4B00954FF4A0723046E1
:101F080000F082F8737B0B4AEE6023F004037373CE
:101F18004FF4046304FB033313442C746B6006B062
:101F280070BD00BF8000002070030020000C00205E
:101F380029370008C0030020BFB50020FFF740FF85
:101F4800294B83F30888294C294F636943F40073AC
:101F580063610025F02384F82230E57725766576DD
:101F6800A57684F82050636A43F4E0236362FEF7A1
:101F78008BFDFEF7B1FE4FF0FF33A362E362FEF77D
:101F880071FFFEF7CDFE1B481B4C00F089F801F0ED
:101F980095FBFEF707FB0120FFF712FF0220FFF772
:101FA8000FFF00F0C3F9154B15495C61154B0593FC
:101FB8000123CDE903534FF480623B46CDE9015537
:101FC8000095204600F020F8627B064622F00402C5
:101FD8002046627301F0C1FB2846FFF775FF3A46B9
:101FE80031462046FEF75AFE000C002000ED00E0C6
:101FF800F91D000880010020000100207003002066
:10200800800D0020F54500082DE9F043073285B022
:1020180022F007020E461F461099017300F158037B
:102028007F32C0E916330446002322F03F02042120
:10203800836041733F2A0F98A073C4E90633E373A2
:1020480006F14009A2F1400805D883F31188BFF3CF
:102058006F8F084602DFB51829462046FEF7F4FAC6
:1020680007300E9B20F00700A066C4E91898029379
:102078000D9B01932D1A0C9B00932A463B46314633
:102088002046FEF7D9FD00236365044B9B6803B126
:10209800DB6EE366284605B0BDE8F08370030020D8
:1020A80040F2011383810023C0E91833C366014B52
:1020B8009860704770030020094A93686FF00A011E
:1020C8009967084958674B6843F080534B60002371
:1020D80083F31188BFF36F8F9368986F704700BFC1
:1020E8007003002000ED00E070B590F90D20437BEF
:1020F800002A36DBD90634D11B4C63F07F03224615
:10210800437352F8183FE169934207D1C0E90021AF
:102118000860E06111E09942F8D01B68002BF5D007
:1021280090F90E5093F90E60B542F4D0AE42F2DD4C
:102138005968C0E9003108605860A569954200D027
:1021480005B9E568A3685A7BD20604D1DA897F2AE3
:1021580001D9AA6932B1AB4202D0284600F066FA2A
:10216800656170BD6361FCE77003002038B590F9C4
:102178000D20437B002A014604DA03F07F034373F2
:1021880001F0D9FA0D4D2A46AB6852F8184F94421F
:1021980000D004B9EC688B4207D05A7BD20604D130
:1021A800DA897F2A01D9A2692AB1A34202D020463E
:1021B80000F03CFA23466B6138BD00BF7003002075
:1021C80070B590F90D20437B002A014604DA03F02C
:1021D8007F03437301F0AFFA4B7B1C4C63F07F0322
:1021E80022464B7352F8183FE069934207D1C1E980
:1021F80000200160E16111E09842F8D01B68002BD3
:10220800F5D091F90E5093F90E60B542F4D0AE4274
:10221800F2DD5868C1E9003001605960A569A3681A
:10222800954200D005B9E5688B4207D05A7BD206A3
:1022380004D1DA897F2A01D9AA692AB1AB4202D02E
:10224800284600F0F3F92B46636170BD7003002047
:1022580049B9EFF3058030B9054B5A699B689A4232
:1022680001D0FFF729BF81F31188BFF36F8F704743
:1022780070030020034648B9EFF3058232B9064AD5
:1022880051699268914201D0FFF716BF83F3118814
:10229800BFF36F8F704700BF70030020EFF3118109
:1022A800102383F31288BFF36F8F054B9A68D37B93
:1022B800013BD37381F31188BFF36F8F704700BF61
:1022C8007003002070B5EFF31186102383F3128892
:1022D800BFF36F8F144DAB68DA7B0132DA732A468D
:1022E80052F8184F944200D004B9EC685A7BD206D1
:1022F80004D1DA897F2A01D9A2692AB1A34202D07E
:10230800204600F093F923466B6186F31188BFF3EA
:102318006F8FEFF31180102383F31288BFF36F8F51
:10232800BDE87040FFF7A6BF70030020024B03F121
:102338001802C3E9062270477003002070B5EFF356
:102348001186102383F31288BFF36F8F1B4CA1688B
:10235800E0690B68814214BF1A46002249680B6085
:102368005960A368E1692AB9154AC3E900210B60DD
:10237800E3610CE093F90E0092F90E50A84218D0D0
:10238800854216DD5168C3E900210B605360A569D9
:102398000B4B9D4200D005B9E568A3689D4202D069
:1023A800284600F043F965613046BDE87040FFF704
:1023B80083BE8A42D8D01268D5E700BF70030020D8
:1023C80088030020F8B550EA010306460C4603D1FD
:1023D800FFF7B4FF0020F8BDEFF31187102383F354
:1023E8001288BFF36F8F124D124BA8681860FFF761
:1023F800BDFEA868104923463246183000F0B8F9E7
:10240800AA68537B43F00403537304463846FFF726
:1024180053FEAB68D3E90A23B3F1004F08BF002A83
:10242800D8D101F031FA201A20EAE070D3E700BFD2
:102438007003002090030020BB37000838B504461D
:10244800EFF31185102383F31288BFF36F8F437B5B
:102458005B070FD5183001F0EFF9637B23F0040315
:1024680020466373FFF740FE29460548BDE838401B
:10247800FFF7EEBE85F31188BFF36F8F38BD00BF3D
:102488009E030020014B9868704700BF700300202E
:102498002DE9F8430446077BEFF31185102383F3F6
:1024A8001288BFF36F8F437B190705D585F3118811
:1024B800BFF36F8FBDE8F883D90943F008025DD1F7
:1024C8004273A36813B1204601F03DF904F11800E6
:1024D80001F0B2F9A66D04F15808B04511D04FF0DB
:1024E800000976B1304601F02EF906F1180001F026
:1024F800A3F9C6F878903046FFF7F6FDA66DB0450B
:10250800EFD1DFF8C080D8F808309C423ED1EFF315
:102518000589B9F1000918BF4FF00109D8F818600A
:10252800294A964200D00EB9D8F80C60B34202D0BE
:10253800304600F07BF82046C8F8146000F00BFD28
:10254800B9F1000F02D02148FFF7AAFDD8F80830EA
:102558009C4231D1EFF3058373BB227BD20718D499
:102568002846FFF7A9FDFB07A4D5002383F31188AC
:10257800BFF36F8F0423184602DF9BE703F07F0346
:1025880043F00803437301F0D6F89AE74FF00009C7
:10259800C4E785F31188BFF36F8F83F31188BFF306
:1025A8006F8F0423184602DFEFF31180102383F3A3
:1025B8001288BFF36F8FD4E785F31188BFF36F8F4D
:1025C800D1E700BF700300208803002080010020AD
:1025D800044BC01A044BC0105843044B01221A5430
:1025E800704700BF00020020ABAAAAAA9E030020E1
:1025F800C3897F2B12D80A4B1B6863B1094B90F92A
:102608000E201B689A4209DB437BDB0606D1064B8A
:10261800C31A18BF012303F0010070470023FAE72B
:1026280038000020940300208000002070B50E4B75
:102638000E4C1E7C06EB460304EBC30405462046FD
:1026480001F0FAF80A4B002228469A55FFF7D0FF06
:1026580048B1084B08491A68013A2046D317BDE823
:10266800704000F085B870BD7003002000020020A3
:102678009E03002038000020D925000838B5EFF364
:102688001185102383F31288BFF36F8F104B114A03
:102698009C681068A04206D1FFF7C8FF85F311882F
:1026A800BFF36F8F38BD00211B7C11600A4AD35CD1
:1026B800002BF3D02046FFF79BFF0028EED0637B6A
:1026C800DB0602D12046FFF77BFD2046E4E700BF8A
:1026D80070030020900300209E0300200748084A4A
:1026E800084908B5121A01F019F80748074A0849B5
:1026F800BDE80840121A01F011B800BF0000002020
:10270800700000204446000800000020000000205F
:1027180044460008024B1868984208BF00207047DA
:102728003C000020034B1B680BB9FFF771BA00206F
:10273800704700BF9803002030B570B10B4B5B6841
:1027480098420AD0036843B1D3E90421D0E904458B
:10275800121941EB0501C3E90421D0E900321360E5
:102768005A600023C0E9003330BD00BF3C000020A0
:10277800B3F1FF3F08BFB2F1FF3F2DE9F84F044620
:10278800994615461F467AD08160EFF311881023C9
:1027980083F31288BFF36F8FB9F1000FDFF8E4A05D
:1027A80020DBFFF7BFFFDAE90027013549F100090F
:1027B8002D1849EBE073C4E90453AD18064643EB02
:1027C80007074FF00109FFF7A5FFDFF8BCE0DEF8C7
:1027D80004A00346EBB9C4E900EACAF80040CEF801
:1027E800044028E0DAE900126FF001035B1A4FF0A9
:1027F800FF3161EB02025B1B62EB0902012B72F1F4
:102808000001BCBF01230022C0E904324FF00009D7
:10281800D9E7D3E9041CD4E904208A4270EB0C0BF5
:1028280024DA891A5A686CEB0000C3E90410C4E979
:10283800003214605C60FFF76DFF84420ED1134BC9
:102848001B685BB9B9F1000F02D1FFF76BFF0646B1
:10285800304600F0DAFF0021FFF75EF988F31188AF
:10286800BFF36F8F28463946BDE8F88F521A60EBE0
:102878000C009A45C4E90420ADD01B68AAE70025DE
:102888002F46EFE7180200203C00002098030020A4
:102898002DE9F047EFF31185102383F31288BFF376
:1028A8006F8FDFF8A490DFF8A480C9F80000FFF765
:1028B80031FF00260027D9F80030D8E900ECD917F5
:1028C80050B1D0E90442A34271EB020A1CDAE41ABF
:1028D80062EB0102C0E9044213EB0E034FF000045F
:1028E8004CEB01012046C8E90031C9F8004000F06E
:1028F8008CFF2146FFF710F985F31188BFF36F8F1E
:10290800BDE8F047FFF7BABE14EB0E024CEBE473D8
:10291800C0E90467C8E90023FFF70EFF85F31188B3
:10292800BFF36F8F83689847EFF31185102383F304
:102938001288BFF36F8FD9F800301B1BC9F800301D
:10294800FFF7E8FEB7E700BF980300201802002051
:1029580010B5EFF31184102383F31288BFF36F8F40
:10296800FFF7E0FE054A0346D2E90001181841EBDB
:10297800E37184F31188BFF36F8F10BD1802002034
:10298800014800F0CBBA00BFFA4500082DE9F04F26
:102998008DB043680293837815469A07804640F1C4
:1029A8000D8100240E78002E00F00A81252E0BD010
:1029B8004B1C03930134029B41463046984700283C
:1029C800C0F2F6800399EDE74E788B1C252E039311
:1029D800F0D00027B946BB46BBF11F0F38D8A6F187
:1029E8002003102B0AD8DFE803F02A090930090967
:1029F800092109090928092D09091F00A6F1300331
:102A0800092B33D92A2E37D11BF0400F55F8043B38
:102A180040F08280002BA7BF4BF0200B9946C3F1F2
:102A280000094BF0280B01E04BF0010B039B13F856
:102A3800016B0393002ECFD130E04BF0020B4BF02B
:102A4800040BF3E74BF0080BF0E74BF0100BEDE746
:102A5800BBF17F0F19D8A6F13003092BD2D81BF090
:102A6800400F03D00A2101FB0737DFE70A2101FBEA
:102A780009394BF0200BD9E72E2E06D11BF0400F59
:102A880040F09E804BF0400BD0E76C2E31D02BD815
:102A9800682E36D06A2E3CD04C2E3AD0002F46F005
:102AA8002003B8BF2BF04002A3F16501BCBF1FFA99
:102AB80082FB0027022901D9612B2FD1073525F088
:102AC8000705DFF8ACA2083507271BF0080F66D00A
:102AD8000AEB070B56465E4563D1A4EB0A0A06EBE0
:102AE8000A02A9EB07096FE1742E9FD07A2E9DD0B8
:102AF800D4E71BF0800F18BF4BF4007B4BF0800B22
:102B080094E71BF4807F18BF4BF4007B4BF4807B69
:102B18008CE74BF4207B89E71F4687E7A6F1630122
:102B2800122900F2F080DFE811F013004F00EE00E8
:102B3800EE00EE00EE004F00EE00EE00EE00EE00BC
:102B4800EE00FE00E900EE00EE001B00EE00AF0014
:102B580055F8043B8DF8183001270DF1180AB4E731
:102B680055F804AB834BBAF1000F08BF9A461BF027
:102B7800400F14BF39464FF0FF31504600F09EFE1B
:102B88000746A2E7029B41462020984700280FDB12
:102B9800013EB742F6D34C44A41BB14698E74E46D3
:102BA800F7E716F8010B029B41469847002892DA8E
:102BB80098F8023043F0040388F802304FF0FF34ED
:102BC80020460DB0BDE8F08F1BF0800F34D01BF409
:102BD800007F2CD0073525F00705AA4669685AF802
:102BE800080B2BF010050029ADB237DA404261EB33
:102BF800410145F480650DF1180B0A235A4600F08F
:102C080069FEA0EB0B0301936B0662D5019B25F0CF
:102C180001019F4289B240F3A180002E00F0998003
:102C280015F0100240F09C80BB460D4623E0AA46F2
:102C38005AF8040BC117D4E7AA461BF4807F5AF848
:102C4800041B01D10846F5E71BF4007F15BF48B205
:102C580008B241F3C01141F3C031C2E750EA0103A1
:102C6800C9D11BF0400FC6D0002FC4D12BF01102E0
:102C780095B2BB46019740F2064115EA01021CBF16
:102C88000BF1010B00222CE02BF010021FFA82FB43
:102C98000A231BF0800C49D01BF400711DBF0735B7
:102CA80025F00705AA46AA461ABF5AF8080B69680C
:102CB8005AF8040B50EA010545D12BF016051BF014
:102CC800400FADB242D0002F40D12BF0170295B281
:102CD800019715F0100248D0019B002E42D103F154
:102CE800010B29075AD4EB0706D5D9456FDD0199A1
:102CF800A9EB0B035F18CB465B4649E04BF0100B82
:102D080010237826C5E7782B04D1C6F1780343F061
:102D18001003BEE7029B4146252098470028FFF68E
:102D280047AF023447E608230026B2E7AA461BF459
:102D380080715AF8040BBDD01BF400711ABFC0B2E1
:102D4800614680B2B6E72BF0060295B20DF1180B7A
:102D580054E725F01105ADB2BB468CE70D46B8E740
:102D68003B460D4603F1020BBBE7DDF804B082E7F2
:102D78003C46000835460008CDE904324146029B2E
:102D8800202098470028FFF613AF049B059A0133CB
:102D98009945F1DCA4EB0B01CC189B460AB3029BC6
:102DA8004146302098470028FFF602AF8EB901341B
:102DB8002744019B391B994224DC1D465DBB019ABF
:102DC800A9EB0B09224455461446914435E0019F6E
:102DD80092E7023441463046029B98470028E7DADA
:102DE800E6E640F206410D42E2D015F0020F14BFAC
:102DF8002B20202015F4806F04F10104414618BFF0
:102E08002D20E9E7029B414630209847002804F12D
:102E18000104CEDACCE606AB013D4146585D029B83
:102E280098470028CADAC3E6029B41462020984703
:102E3800002804F10104FFF6BBAEA9EB0403002B44
:102E4800F2DCBFE5704700EBC100408840087047DE
:102E5800F8B50346FFF7F7FFB0FA80F0C0F11F009E
:102E680003EB800CCA00DCF81060171D0C46063214
:102E78008DB256B9012101FA00F0D9680143D96031
:102E8800CCF81040DD539D52F8BDF1000431585A7A
:102E9800D85303EBC0009E52C5805D52F4E7043A54
:102EA8002DE9F041CC1D114424F0070421F007015D
:102EB8000E1BF708B7FA87F2C2F12405AD004FF0F0
:102EC80000080735C2F12002ED0804604146A760FA
:102ED800C4F80C80920004F1100000F0E7FC6B00CD
:102EE80043F00103638004EBC5027B1B5900A4F87F
:102EF80000805180A21924F83550A2F80280A3530B
:102F080004EBC70329465A8842F001025A8020463A
:102F1800BDE8F041FFF79CBF002070470FB407B52C
:102F280004A951F8040B0191FDF7B2FA03B05DF85A
:102F380004EB04B07047704701460068FDF750BBCA
:102F480008B5FDF77DFBBDE80840FDF79DBB0021F6
:102F58000120FDF745BB6FF08500704761B662B68A
:102F680080F31188BFF36F8F704772B6002383F325
:102F78001188BFF36F8FBFF34F8F30BF62B6BFF3B7
:102F88006F8F7047202809D9B0F1004F08D8013851
:102F9800B0FA80F0C0F11F00400070470820704769
:102FA8003E20704708B5FEF711F8002008BD08B5A7
:102FB800062201210020FEF72FF8002211460620E4
:102FC800FDF7F8FD012108460722FEF725F8002243
:102FD80011460720FDF7EEFD082201210220FEF729
:102FE8001BF8002211460820FDF7E4FD0922012103
:102FF8000320FEF711F8002211460920FDF7DAFD3B
:103008000A2201210420FEF707F8002211460A20AF
:10301800FDF7D0FD052108461722FDF7FDFF002228
:1030280011461720FDF7C6FD282206210A20FDF7C4
:10303800F3FF002211462820FDF7BCFD002008BD43
:1030480001F01F0101208840704700F0030204329C
:1030580092000F23934043EA900010B500F0030359
:103068009B0003F1804303F58033020C9C6892FABD
:10307800A2F2B2FA82F224EA104091400143996028
:1030880010BD0B88C3F30B0303F6B872C2F30B022F
:10309800182A82B014D803F1804303F50433486832
:1030A8001A6802431A600B88C3F30B0303F18043C9
:1030B80003F5043300201B680193019B02B070479D
:1030C8006FF08500FAE70B88C3F30B0303F6B872B9
:1030D800C2F30B02182A9FBF03F1804303F50433A0
:1030E80049681A689DBF8A4300201A606FF08500FE
:1030F800704701380B2809D840F6CF53C34013F066
:10310800010F14BF00206FF0850070476FF0850035
:10311800704710B50888C0F30B00FFF7EAFF0028D6
:103128001FDB4A68FF2A1BD093B203F1804303F5E3
:103138000433C2F384541868C2F3054204FA02F255
:1031480020EA02021A6049688BB203F1804303F552
:103158000433CA0E1868C1F305418A4002431A6055
:10316800002010BD0888C0F30B0008B500F6B8733E
:10317800C3F30B03182B0AD800F1804000F5043084
:103188004B680268934314BF0120022008BDFFF773
:10319800B0FF002814BF01200220F7E770474368FA
:1031A8005B681B690B600020704743685B6858695F
:1031B80042400A4042405A610020704743685B68B9
:1031C80000209961704743685B68002099627047E6
:1031D80043685A6853694B4053610020704710B5E3
:1031E80003699868F8B1884219D1DC680868986062
:1031F800A14200D1D860002008602AB19A680A600C
:10320800DA68996002B9D960002010E0814206D1DD
:1032180008682060D8688142EDD1DC60EBE704469D
:1032280000680028F2D1002AE8D16FF0150010BD1F
:10323800F0B502F030054468302D1E464FF001000D
:1032480008BFE36A00FA01F004BF0343E36267685A
:10325800C2F3801327EA00078B403B43636090FA70
:10326800A0F7B7FA87F7D4F808C04FF0030E7F002D
:103278000EFA07F72CEA070C90FAA0F7B7FA87F7C7
:10328800C2F3C1137F00BB4043EA0C03A36090FA6A
:10329800A0F3B3FA83F3E7685B000EFA03F327EAB7
:1032A800030790FAA0F3B3FA83F3C2F341225B0059
:1032B8009A403A43202DE26016D107292BD890FA7C
:1032C800A0F3226A2BB3B3FA83F39B000F2101FA10
:1032D80003F322EA030290FAA0F3B3FA83F39B0004
:1032E80006FA03F31343236290FAA0F3B3FA83F3C5
:1032F800226890FAA0F05B000321B0FA80F02D0953
:1033080001FA03F3400022EA030385401D432560C8
:10331800F0BD2B46D9E7030A616A93FAA3F282B19A
:10332800B2FA82F292000F2793FAA3F3B3FA83F367
:1033380007FA02F29B0021EA02029E4016436662E7
:10334800D2E72A46EEE712F4003CF8B50C461346DD
:103358001DD0960714D555075CD55022D90611D52E
:1033680042F4007203F4C061B1F5806F42D0B1F548
:10337800C06F19D0B1F5007F18D142F0800215E076
:103388001022EBE79F06EDD542F48062EAE7D60308
:1033980005D5D50605D4C2F340129202E2E73022E1
:1033A800E0E74FF40072DDE742F4C07213F44036F0
:1033B800056908D02F6927FA04F1C9075FBF012101
:1033C800A14039432961BCF1000F06D01F034168B1
:1033D80013D549680123A3408B6140680023214627
:1033E800FFF726FF26B92B6923FA04F2D2070BD47C
:1033F8000020F8BD42F48072D8E75F0341BF012383
:103408004968A3408B62E8E70122A24023EA02034D
:103418002B61EDE76FF08500EBE770B50B46896827
:10342800054611B15E680C6801B970BD8A682A400A
:1034380002D04B68304698471CB1236821461C4689
:10344800F2E72346FAE7F8B51F46044640680E46F9
:103458001546FFF7EDFE112F08D1012303FA06F6F2
:1034680063685B682A054CBF9E619E620020F8BDB8
:1034780030B5036813600579046804EBC504A342FA
:1034880002D36FF0010030BD5C798C4201D0083363
:10349800F0E70020F7E74368C1F34B101B6801F021
:1034A8001F01C05801238B40034214BF012300238E
:1034B80013700020704710B54368C1F34B101A68A9
:1034C80001F01F01845801238B40234383500020BF
:1034D80010BD10B54368C1F34B14186801F01F0103
:1034E800235801228A4023EA02032350002010BDFA
:1034F80038B504460D46FFF7DEFF29462046FFF79C
:10350800E8FF002038BD37B5436802691D680C46DE
:1035180019B96FF0150003B030BD1068D968836819
:10352800DB6893B101AA98470028F4DB2B6823F4E1
:1035380000432B60019B03EB5403B3FBF4F10F2909
:10354800E7D989B2E9600020E5E76FF05700E2E7C4
:10355800B0F5805F07D0B0F1805F09D1002914BFB2
:10356800012002207047002914BF0320042070475F
:10357800002914BF02200320704743681B68D869DC
:10358800DA69D107DA69C0F3C00048BF40F0020029
:103598009207DA6948BF40F004005107DA6948BF6A
:1035A80040F02000D20542BF4FF4807240F008007E
:1035B8001A62C10744BF08221A62820744BF012267
:1035C8001A62410744BF02221A62820644BF0422DB
:1035D8001A62704710B543681B681020DA69120632
:1035E800FCD5EFF3118280F31288BFF36F8FDC698B
:1035F800240604D482F31188BFF36F8FEEE7198590
:1036080082F31188BFF36F8F10BD43681B68DA69B6
:10361800100744BF08221A62DA69920643BF9B8CDE
:103628000B7000204FF0FF30704710B502695268E8
:1036380012680A6042681268126802F4C062B2F541
:10364800806F04460B4633D0A2F5C0604242424127
:103658001A7162681268526802F44052B2F5805FCB
:1036680028D0B2F5405F27D0002A0CBF01220322E0
:103678005A71626812681068116800F0102001F42D
:10368800C061FFF765FF987162681268926802F47A
:103698004072A2F540714A424A41DA71616809688C
:1036A800896811F4804F18BF0322DA71002010BD19
:1036B8000222CDE70022DBE70222D9E7704740B1BA
:1036C800C368587810F001001EBF1878B0FA80F06F
:1036D80040097047EFF31183102383F31288BFF377
:1036E8006F8FFEE708B5FFF7F5FF10B5436904468D
:1036F80033B90020E268537843F00103537010BDDA
:1037080098470028F5D00028B8BF4042E368FF2852
:10371800A8BFFF201870EDE700F0C8B800F0B8B8EF
:1037280008B51024EFF3118384F31288BFF36F8F69
:10373800FFF71BFCF6E7D0E9003213605A6000235C
:10374800C0E90033704708B5FFF7F5FF437B23F066
:10375800020343730023836008BD10B5EFF311849F
:10376800102383F31288BFF36F8FFEF7BDFC84F339
:103778001188BFF36F8F10BD10B50146EFF31184A8
:10378800102383F31288BFF36F8F437B13F0280F46
:103798000AD183680BB1FFF7D6FF4B7B23F00403F4
:1037A8004B730846FEF7A0FC84F31188BFF36F8FB4
:1037B80010BD01211838FFF7DFBF38B504460D46A4
:1037C800FEF700FEB5F1FF3F08BFB4F1FF3F034627
:1037D800204614D013F109004FEAE37141F10001CA
:1037E8000A2871F100030BD36FF00A0383424FF0EC
:1037F80004038B4106D30A220023FCF7C1FC38BD21
:103808000020FCE76FF00040F9E708B50246FEF734
:1038180081FF70B1D0E904319B1A61EBE272B3F118
:10382800004F72F1000104DA002AACBF18460020EC
:1038380008BD6FF00040FBE738B50246EFF311858D
:10384800102383F31288BFF36F8F0368CBB1FEF7A1
:1038580061FF04461046FEF76FFF00224FF0004359
:103868008442C0E9042306D1FEF75CFFFFF7CDFFD1
:103878000021FEF751F9002085F31188BFF36F8FFF
:1038880038BD6FF01500F7E708B5FFF761F808BD18
:103898000A44914200F1FF3300D1704710B511F886
:1038A800014B03F8014F9142F9D110BD0244034680
:1038B800934200D1704703F8011BF9E710B502469F
:1038C80001448A42134603D01C780132002CF8D1F7
:1038D800181A10BDF0B5C3F137070446FFB203F05C
:1038E8001F031046082BE6B233D0102B3ED06508D4
:1038F800A40844EA817445EAC1752D194FEA91027A
:1039080042EB5102290941EA02716D1842EB121289
:10391800290A41EA02616D1842EB1222290C41EA98
:1039280002416D1842EB1242AD1842F10002EC0858
:1039380044EA4274D10804EB8402A6EB4205EDB2D6
:10394800092D0CD90134A5F10A0541F10001EDB2A8
:1039580012E0E40844EA417406F00705C908303566
:1039680054EA010200F8015BBCD1F0BD240944EA25
:10397800017406F00F050909092D84BFED19EDB290
:10398800EDE70000014800687047000028020020A9
:0839980024C8FF7F01000000BC
:1039A00000000000303A0008FD040008000000009C
:1039B00000000000503A000800000000303B000802
:1039C00000000000703B000800000000703A000892
:1039D00000000000503B000800000000103B000801
:1039E00000000000F03A000800000000D03A000893
:1039F00000000000B03A000800000000903A000803
:103A0000B72F00080000000000000000903B0008F5
:103A100000000000B03B00088D140008000000000A
:103A2000891A000800000000FD0F000800000000D7
:103A30003745000800000000943E000856000020B2
:103A40000000000009130008000000000000000052
:103A5000B4450008FC3F0008843E000868000020D0
:103A60000000000000000000000000000000000056
:103A7000194500080000000000000000540000206C
:103A800000000000B111000800000000000000006C
:103A900044450008F43E0008603E0008580000203D
:103AA000C80200208D150008000000000000000082
:103AB00052450008083F0008603E00085A000020F8
:103AC000DC0200208D15000800000000000000004E
:103AD000604500081C3F0008603E00085C000020B4
:103AE000F00200208D15000800000000000000001A
:103AF0006E450008303F0008603E00085E00002070
:103B0000040300208D1500080000000000000000E4
:103B10007C450008443F0008603E0008600000202B
:103B2000180300208D1500080000000000000000B0
:103B30008A450008583F0008603E000862000020E7
:103B40002C0300208D15000800000000000000007C
:103B5000984500086C3F0008603E000864000020A3
:103B6000400300208D150008000000000000000048
:103B7000A6450008803F0008603E0008660000205F
:103B8000540300208D150008000000000000000014
:103B9000C545000800400008B03E00086A0000204B
:103BA000140000209517000800000000000000002D
:103BB000D54500084C400008B03E00086C000020CD
:103BC00024000020951700080000000000000000FD
:103BD00000000000572F000800000000572F0008C9
:103BE00000000000572F000800000000572F0008B9
:103BF00000000000572F000800000000572F0008A9
:103C0000174500083910000815450008391000084C
:103C10001345000839100008114500083910000844
:103C20000F4500083910000800000000572F000859
:103C300000000000572F000800000000572F000868
:103C400000000000572F000800000000572F000858
:103C500000000000572F000800000000572F000848
:103C600000000000572F000800000000572F000838
:103C700000000000572F000800000000572F000828
:103C800000000000572F00080D45000839100008FB
:103C900000000000572F000800000000572F000808
:103CA00000000000572F000800000000572F0008F8
:103CB00000000000572F000800000000572F0008E8
:103CC00000000000572F000800000000572F0008D8
:103CD00000000000572F000800000000572F0008C8
:103CE00000000000572F000800000000572F0008B8
:103CF00000000000572F000800000000572F0008A8
:103D000000000000572F000800000000572F000897
:103D10000B4500083910000800000000572F00086C
:103D200000000000572F000800000000572F000877
:103D300000000000572F000800000000572F000867
:103D400000000000572F000800000000572F000857
:103D500000000000572F000800000000572F000847
:103D600000000000572F000800000000572F000837
:103D700000000000572F000800000000572F000827
:103D800000000000572F000800000000572F000817
:103D900000000000572F000800000000572F000807
:103DA00000000000572F000800000000572F0008F7
:103DB00000000000572F000800000000572F0008E7
:103DC00000000000572F000800000000572F0008D7
:103DD00000000000572F000800000000572F0008C7
:103DE00000000000572F000800000000572F0008B7
:103DF00000000000572F000800000000572F0008A7
:103E000000000000572F000800000000572F000896
:103E100000000000572F000800000000572F000886
:103E200000000000572F000800000000572F000876
:103E300000000000572F000800000000572F000866
:103E400000000000572F000800000000572F000856
:103E500000000000572F000800000000572F000846
:103E60004F330008A7310008B3310008C5310008FE
:103E7000CF310008D9310008DD140008E73100080F
:043E8000000000003E
:103E84009F340008BF340008DB340008F93400080C
:103E94008B300008CF3000080000000045120008F5
:0C3EA4006D310008000000001B31000818
:103EB00013360008DD35000883350008E9180008CE
:043EC000333600088D
:103EC400CDAB3412000000200000000000000B06FF
:103ED40002000000DC3E000800000008FC4400086A
:103EE40026000206000000200445000820000B11F3
:103EF400FFFF0000001C0048070000004C00000009
:103F040080000000FFFF00000018004806000000C9
:103F14004C00000040000000FFFF000000140048B7
:103F2400050000004C00000020000000FFFF00001E
:103F340000100048040000004C00000010000000C5
:103F4400FFFF0000000C0048030000004C000000CC
:103F540008000000FFFF0000000800480200000005
:103F64004C00000004000000FFFF000000040048B3
:103F7400010000004C00000002000000FFFF0000F0
:103F840000000048000000004C0000000100000098
:103F9400703B0008503B0008303B0008103B000811
:103FA400F03A0008D03A0008B03A0008903A000805
:103FB40000000000000000000000000000000000FD
:103FC40000000000000000000000000000000000ED
:103FD40000000000000000000000000000000000DD
:103FE40000000000000000000000000000000000CD
:103FF40000000000000000000010024000440040E7
:10400400503A000811070000244000080100000095
:104014000000000000000000000000002C40000828
:1040240058000000000002003440000801000000B5
:104034003C400008020000004700000000020000AD
:10404400670000000000000000380140503A0008FA
:104054000E0800007040000801000000000000008D
:10406400000000000000000078400008600000002C
:104074000040000080400008010000008840000863
:1040840002000000270100000002000047010000B8
:1040940000000000A0860100400D0300801A060005
:1040A40000350C0040420F0080841E0000093D00D2
:1040B40000127A000024F40000366E010048E80182
:1040C400006CDC02A0390008A0390008203A00087E
:1040D400283A0008303A0008303A0008001000007E
:1040E4000030626F6F74206F6B0A0072302F613181
:1040F4003A2020307825303878202072312F6132F0
:104104003A2020307825303878202072322F6133DD
:104114003A20203078253038780A0072332F613401
:104124003A2020307825303878207231322F697067
:104134003A2020307825303878207231342F6C7250
:104144003A20203078253038780A0020787073724D
:104154003A20203078253038780A004661756C742E
:10416400696E6720696E737472756374696F6E200B
:104174006164647265737320287231352F7063290A
:104184003A203078253038780A00556E68616E64BC
:104194006C6564204952516E3A2025640A002A2A2B
:1041A4002A2A2A204D5055204641554C54202A2A6B
:1041B4002A2A2A0A002020537461636B696E6720DF
:1041C4006572726F722028636F6E746578742061F3
:1041D400726561206D69676874206265206E6F7412
:1041E4002076616C6964290A002020556E7374611D
:1041F400636B696E67206572726F720A00202044D7
:10420400617461204163636573732056696F6C61E7
:1042140074696F6E0A0020204D4D4641522041645E
:1042240064726573733A20307825780A0020204937
:104234006E737472756374696F6E20416363657322
:10424400732056696F6C6174696F6E0A0020204692
:104254006C6F6174696E672D706F696E74206C6128
:104264007A792073746174652070726573657276EF
:104274006174696F6E206572726F720A002A2A2A4D
:104284002A2A205553414745204641554C54202A5B
:104294002A2A2A2A0A0020204469766973696F6EE3
:1042A400206279207A65726F0A002020556E616C55
:1042B40069676E6564206D656D6F727920616363F3
:1042C4006573730A0020204E6F20636F70726F63F2
:1042D4006573736F7220696E737472756374696F3A
:1042E4006E730A002020496C6C6567616C206C6FEA
:1042F4006164206F66204558435F52455455524EC1
:1043040020696E746F2050430A002020496C6C654C
:1043140067616C20757365206F662074686520453D
:104324005053520A002020417474656D70742074D7
:104334006F206578656375746520756E646566695C
:104344006E656420696E737472756374696F6E0A46
:10435400002A2A2A2A2A20425553204641554C54E1
:10436400202A2A2A2A2A0A002020537461636B69AE
:104374006E67206572726F720A0020205072656346
:10438400697365206461746120627573206572725B
:104394006F720A00202042464152204164647265D3
:1043A40073733A20307825780A002020496D7072A2
:1043B4006563697365206461746120627573206547
:1043C40072726F720A002020496E7374727563747E
:1043D400696F6E20627573206572726F720A005283
:1043E4006573657276656420457863657074696F7A
:1043F4006E20280053707572696F757320696E742E
:1044040065727275707420284952512000535053BC
:10441400454C20696E20746872656164206D6F6418
:104424006520646F6573206E6F7420696E646963C0
:10443400617465205053500A002A2A2A2A2A2048E7
:10444400415244204641554C54202A2A2A2A2A0AF9
:10445400002020427573206661756C74206F6E2095
:10446400766563746F72207461626C652072656135
:10447400640A0020204465627567206576656E7461
:104484000A0020204661756C7420657363616C6159
:1044940074696F6E20287365652062656C6F772977
:1044A4000A00415243485F455843455054207769B8
:1044B400746820726561736F6E2025780A0A002A79
:1044C4002A2A2A2A204465627567206D6F6E6974F2
:1044D4006F7220657863657074696F6E202A2A2A6A
:1044E4002A2A0A002A2A2A2A2A202573202564290E
:1044F400202A2A2A2A2A0A00464C4153485F3000BF
:104504005352414D5F30000A0605050401030102C0
:104514000101010001696E746572727570742D6316
:104524006F6E74726F6C6C6572403430303130343D
:104534003030007263634034303032313030300018
:104544006770696F403438303031633030006770E1
:10455400696F403438303031383030006770696FFB
:10456400403438303031343030006770696F403453
:1045740038303031303030006770696F4034383053
:104584003030633030006770696F40343830303019
:10459400383030006770696F403438303030343030
:1045A40030006770696F403438303030303030005C
:1045B40072657365742D636F6E74726F6C6C657263
:1045C4000073657269616C4034303030343430309B
:1045D4000073657269616C40343030313338303087
:1045E40000000000000000000001020304060708A8
:1045F400096D61696E002A2A2A20426F6F74696E00
:1046040067205A6570687972204F53206275696C0F
:10461400642076342E322E302D323834362D6732E3
:104624003637343639623530336462202A2A2A0A0E
:1046340000286E756C6C29002A666C6F61742A0000
:10464400212F000800000000AD2F0008000000002A
:1046540000000000000000001C00002000C2010057
:1046640000010300000000002C00002000C2010033
:104674000001030000093D00C80000003C000020C8
:104684003C000020FFFFFFFFFFFFFFFFFFFFFFFFD6
:04469400FFFFFFFF26
:104698000000000000000000000000000000000012
:0C46A80000000000000000000000000006
:0446B40015E015E018
:0400000508000ABD28
:00000001FF
