:10000000401100209D080000E73B00008908000027
:10001000890800008908000089080000000000002D
:100020000000000000000000000000006109000066
:100030008908000000000000010900008908000094
:10004000050B0000050B0000050B0000050B000070
:10005000050B0000050B0000050B0000050B000060
:10006000050B0000050B0000050B0000050B000050
:10007000050B0000050B0000050B0000050B000040
:10008000050B0000050B0000050B0000050B000030
:10009000050B0000050B0000050B0000050B000020
:1000A000050B0000050B0000050B0000050B000010
:1000B000050B0000050B0000050B0000050B000000
:1000C000050B0000050B0000050B0000050B0000F0
:1000D000050B0000050B0000050B0000050B0000E0
:1000E000050B0000050B0000050B0000050B0000D0
:1000F000050B0000050B0000050B0000050B0000C0
:1001000008B5064D064C2B68204603F083FC002101
:100110004FF4004004F094F8F5E700BFA846000053
:10012000A4470000014B1B68184700BF00000020D7
:10013000014B1860704700BF0000002030B585B04B
:1001400004460D4610220021684604F0F1F802230F
:100150008DF802302A46044B01932146684603F08D
:1001600091F905B030BD00BF2501000080B50546FE
:100170000E461746984602F001FF034604F044F984
:10018000DFF81890044649F80030424630463946B8
:10019000A84754F8090000F09DFB00BF08000000CC
:1001A0002DE9F047058B04462807904611D4022913
:1001B00005F0070540F0CC80204603F038FC78B10C
:1001C0000138218B042811D8DFE800F0C2106D85BA
:1001D000950001290CBF45F0100545F02005258349
:1001E00088F31188BFF36F8FBDE8F08701F0070A2D
:1001F000AA4500F0A5800027B9463E46A368002B1B
:1002000000F0BC8041F00801218388F31188BFF31E
:100210006F8FA168002900F0BA800D68002900F0F6
:10022000B680D1F80480334652462046C047002DA0
:1002300076D02B6829461D46F0E701F007035A1FC8
:10024000012A1BD8002221F00701062B276889B25A
:10025000C4E9002209D13B4603E0628B013262838C
:100260001B68002BF9D141F002012183204603F0E5
:10027000DEFB00287AD041F0200176E0042B0AD181
:1002800021F0070189B22183204603F0D0FB10B191
:1002900041F020012183218B01F0070AAA454FD0AC
:1002A0000027B946AAE7236921F0070141F00601BA
:1002B000062DD3F8009021832DD1B9F1000F3FD046
:1002C00041F00801218388F31188BFF36F8F3A4909
:1002D0002046C84729E021F00701236941F00401C5
:1002E00089B2042DD3F804902183E6D000273E463E
:1002F0004FF0040A82E721F00701236941F005016C
:1003000089B2052DD3F808902183D6D000273E4628
:100310004FF0050A72E700273E464FF0060A6DE7E8
:100320002B4687E7B9F1000FD1D1EFF311882023D5
:1003300083F31288BFF36F8F238B23F0080323838B
:10034000258BEA062ED525F01003238305F007053B
:100350006669218B002EBFF670AF00232768C4E9C1
:10036000003321F0070141F001012183218B01F0CD
:10037000070AAA454FF000097FF440AF002F9CD038
:1003800041F00801218388F31188BFF36F8F002F9C
:10039000C8D03D68394633465246204603F073FBC9
:1003A0002F46F4E7AB067FF51BAF25F02003238330
:1003B00005F0070500E700BFB33A0000014B0360FA
:1003C00000207047AC46000038B505460C4699B190
:1003D000D1E901230F48096803F01CFBD4E9042389
:1003E000E1680D4803F016FBE1690C4803F012FBCD
:1003F000A1690B4803F00EFB012D05D1EFF3058138
:100400000848103903F006FB21462846BDE838406D
:1004100002F0B0B9AD470000DD4700000D48000014
:100420001D4800004C48000030BFFFF7FDBF00BF73
:100430002DE9F0410B4EDFF8308006EB0807CC1BAE
:10044000054632460949204603F064FFA01942469A
:100450000021083C03F06CFF2C6707F10800BDE8A1
:10046000F08100BF0000000004000000A046000072
:10047000054B5A699B689A421FBF044A536843F070
:1004800080535360704700BF3403002000ED00E04C
:100490002DE9F843324D804632488946174603F02D
:1004A000B9FAAB6ADE0622D52F4803F0B3FA11245D
:1004B000AB6A1D0703D52D4803F0ACFA1224284D72
:1004C000AB6A980715D52A4803F0A4FA6E6BAB6A9D
:1004D000190642D52748314603F09CFAB9F1000FBE
:1004E00003D0AB6A23F08003AB62132403E0102433
:1004F000DEE76FF015061A4DAB6ADA0703D51E4822
:1005000003F088FA1424AB6A9B0603D51B4803F05A
:1005100081FA1524124B9A6AD50602D49A6A90077A
:100520000AD55B68190507D54146304600F0A4FAA4
:1005300010B180F309880224094B9A6A920642BFDF
:100540005A6A22F400525A629A6A42F0FF029A6290
:1005500000233B702046BDE8F8836FF01506C4E722
:1005600000ED00E06048000077480000AB48000064
:10057000BF480000D8480000EF4800000F490000C5
:1005800010B51D4C1D4803F045FAA36A990130D5FA
:100590001B4803F03FFA1E20A36ADA0103D519486D
:1005A00003F038FA1F20144CA36A1B0303D5164826
:1005B00003F030FA2120A36A590303D5134803F04E
:1005C00029FA22200C4CA36A9A0303D5104803F0A1
:1005D00021FA2320A36ADB0303D50E4803F01AFA9D
:1005E0002420054A936A6FEA03436FEA1343936238
:1005F00010BD1D20D0E700BF00ED00E03F49000026
:10060000584900006C49000087490000A6490000D5
:10061000CC490000E749000070B5244C0646244848
:100620000D4603F0F7F9A36AD90435D5214803F044
:10063000F1F91720A36A1A0503D51F4803F0EAF958
:1006400018201A4CA36A9B050FD51C4803F0E2F949
:10065000A16BA36A180407D5194803F0DBF91EB192
:10066000A36A23F40043A3621920104CA36A59051E
:1006700003D5144803F0CEF91A20A36ADA050DD584
:10068000114803F0C7F91B20084A936A43F47F43DB
:10069000936200232B7070BD1620CBE7A36A9B04E6
:1006A000F2D50A4803F0B6F91C20EDE700ED00E0B2
:1006B000134A00002A4A0000AB4800003C4A0000F0
:1006C000564A00006C4A0000884A00000F490000AA
:1006D0002DE9F0415B4B5F688AB00446C7F308061A
:1006E000002585F31188BFF36F8F02F07F43B3F1CC
:1006F0007F4F06D102F00C03082B13D1524803F0B0
:1007000089F900252C464FF00008F31E8DF807806C
:10071000092B00F28680DFE803F00A7A7E76848473
:100720008484848210074CBF0C460125EBE74748C0
:10073000444E03F06FF98DF80780F36A9A0704D5E9
:10074000434803F067F9002330E0F36A002B01DA35
:100750004048F6E7F36A5B00F5D53F4803F05AF9E5
:100760007369A26943F480737361BFF34F8FBFF362
:100770006F8F736932F8022C23F480737361BFF3B7
:100780004F8FBFF36F8F4DF602739A4209D0B36A51
:10079000DBB253B30DF1070201212046FFF778FECB
:1007A00033E021682D4803F035F923689DF80720D0
:1007B000C2B902AE04F1200720686168324603C264
:1007C0000834BC421646F7D1099AB5B3C2F3080102
:1007D00021B96FEA52226FEA4222099202A9184611
:1007E000FFF7F2FD0AB0BDE8F081B36A13F47F4F62
:1007F00005D00DF107010120FFF70EFF05E0B36AF8
:10080000B3F5803F9FD3FFF7BBFE0346CEE70DF164
:1008100007020021C1E70DF107010020ECE71048B5
:100820008FE7104B1049114817F4F87FA6F110021A
:1008300018BF194603F0EEF885E722F4FF7222F0A4
:100840000102CAE700ED00E0CF4A0000FB4A0000C9
:10085000134B0000354B0000444B0000644B00007C
:10086000814B0000B64A0000A14A0000A64B0000E0
:10087000044B5A6942F010025A615A6922F0080288
:100880005A61704700ED00E0EFF30880EFF3098153
:1008900001B57246FFF71CFF01BD00BF0B4880F396
:1008A000088801F0EBF9202080F3118808484FF404
:1008B0000461401880F30988EFF314800221084393
:1008C00080F31488BFF36F8F00F09EF84011002072
:1008D00080030020084B9B6883420BD1EFF3058314
:1008E00043B1064B5A6842F080525A605A6A22F469
:1008F00000425A6202F048BB3403002000ED00E0E1
:1009000014498A684FF030001044EFF3098C80E8F6
:10091000F01F202080F31288BFF36F8F0E4F4FF02F
:1009200000664A698A603E60106F0C4C2060506F10
:100930000023536780F3118804B5104600F000F9D6
:10094000BDE8044002F1300090E8F01F8CF3098804
:10095000704700003403002004ED00E0F0010020A7
:100960001EF0040F0CBFEFF30880EFF309808169DC
:1009700011F8021C0229FFD001B5724603F02FF9CD
:1009800001BD00BF40B2002807DB044A4109012332
:1009900000F01F00834042F82130704700E100E082
:1009A000054B420900F01F0053F82220012303FAEF
:1009B00000F01040704700BF00E100E040B20028A6
:1009C000A8BF00F1604001F10101B8BF064B4FEA3A
:1009D0004111ACBF00F5614000F00F00C9B2B4BFD7
:1009E000195480F80013704714ED00E0044B054AD9
:1009F00023F07F039360BFF34F8FBFF36F8F704778
:100A00000000000000ED00E008B5FFF7EFFF0B4A23
:100A1000D2F8883023F47003C2F88830EFF31483DF
:100A200023F0040383F31488BFF36F8F01F032FFC8
:100A300002F0D0FB00F05AF801F070FF00ED00E08A
:100A400042F8203C009B42F81C3C0A49019B42F8BA
:100A5000183C029B42F8143C21F001014FF08073D6
:100A600042F8043C42F8081C0023203A0265436720
:100A7000704700BF6D010000094A0346906870B1DD
:100A800013F1160F006E05D0A0F140029A4205D86E
:100A9000834203D2814228BF002070470020704764
:100AA0003403002008B515460B4A0C4B9060026FCA
:100AB0001A600E4600F044F82C4686F309880020A0
:100AC000034B98472046002100220023014C204779
:100AD000033C00006D01000034030020F001002001
:100AE000014B10221A61704700ED00E0044800231A
:100AF0002021C2180133302B82F80013F9D170473E
:100B000000E100E008B5EFF30583064A103B02EB75
:100B1000C30152F8330049688847BDE80840FFF731
:100B2000A7BC00BFD4440000024B034A0348012184
:100B300000F076B80000022000000020AC46000063
:100B4000026E054B403A1A60044A4021C3E9011283
:100B50001846012100F06EB8F401002000000B15CA
:100B6000084AC2F898000B6823F01F03034343F0C0
:100B70001003C2F89C308B6843F00103C2F8A03028
:100B8000704700BF00ED00E02DE9F043DFF8608022
:100B900085B00E461F4604464FF00009B14523DAE2
:100BA0006068D8B13FB1411E08421BD11F2819D936
:100BB0002368194216D12368019303F045F8A3680E
:100BC00003430393D8F89050C5F30725D0B2013DF5
:100BD000A84207D801A9FFF7C3FF421C09F1010988
:100BE0000C34DBE76FF01502104605B0BDE8F0836A
:100BF00000ED00E0044B0522C3F89420BFF34F8FB3
:100C0000BFF36F8F704700BF00ED00E0BFF35F8F51
:100C1000024B0022C3F89420704700BF00ED00E0B3
:100C200010B5034C01232278FFF7AEFF207010BDF2
:100C30006003002008B50B4A00231278FFF7A4FFD9
:100C400010F1160F07D0084A0021D2F89030C3F3F4
:100C50000723984200DB08BDC2F89800C2F8A01034
:100C60000130F2E76003002000ED00E02DE9F043E1
:100C7000534B544CD3F890302568C3F307239D425F
:100C800085B000F29A80FFF7C1FF00200C26854254
:100C90001AD14D4C4D4F25706846FFF78FFBDFF89A
:100CA0002081DFF82C9106460025AE4213D123782F
:100CB00043490020D1F89020C2F30722934276DB0B
:100CC000FFF798FF002042E0616806FB0011FFF784
:100CD00047FF0130DBE7009800EB05114FEA051CE8
:100CE000CB683B40B3F5000F48D00AD8B3F5001FDE
:100CF00030D0B3F5800F36D0B3F5801F10D001355A
:100D0000D3E7B3F1807F42D0B3F1007FF7D150F841
:100D10000C3088684A6802F097FF40F4802009E0B0
:100D200050F80C3088684A6802F08EFF40F0885016
:100D300040F43020CDE901230390D8F8903020789A
:100D4000C3F30723013B98422AD96FF0150005B081
:100D5000BDE8F08350F80C3088684A6802F074FFF0
:100D600040EA0900E6E750F80C3088684A6802F06B
:100D70006BFF40F0C06040F40030DBE750F80C300F
:100D800088684A6802F060FF40F08270D2E750F84D
:100D90000C3088684A6802F057FF40F08870C9E755
:100DA00001A9FFF7DDFE237801332370A7E7C1F81F
:100DB0009830C1F8A00001337CE74FF0FF30C6E760
:100DC00000ED00E0B8460000600300200000F0FFE6
:100DD0000000081108B5024B1B689847002008BDA9
:100DE00000020020034B044A1860937843F002038A
:100DF00093707047000200200400002008B50649E7
:100E0000064821F00701C1F1005202F5003202F05C
:100E1000C2FD002008BD00BF871100200402002091
:100E2000044A0123C2F840354FF080420020C2F846
:100E30007835704700E0014020B1034B800143F05A
:100E400001031847704700BFA0460000084B70B56B
:100E5000C31A0D4607499B100446594306484022D1
:100E600002F010FF2B4601462046BDE870401847AF
:100E700024020020B76DDBB65444000073B50C4C5F
:100E80000C4A4023041B00930D460B460A49A4104C
:100E900061430646094802F021FF011E05DA30468B
:100EA0002B4602B0BDE87040184702B070BD00BFCD
:100EB00024020020473D0000B76DDBB6544400001B
:100EC000002270B5012104461046FFF777FD0F4858
:100ED00000F0C4FF0E4B984215D100F0CFFF2669F9
:100EE0000C49304602F0F2FD00280BDB0125356489
:100EF0002469084904F11C0002F0E8FD002801DB28
:100F0000E564002070BD6FF00400FBE745100000B1
:100F10000000AD0BD84600001FB500220123CDE92B
:100F20000223094ACDF800D06B46CDF804D002F078
:100F300003FF002805DB4FF480420023684601F0E0
:100F400089FD05B05DF804FB653D000010B5EFF3C9
:100F50001184202383F31288BFF36F8F074A13682D
:100F600023F00201DB07116002D4012003F035F801
:100F700084F31188BFF36F8F10BD00BF740200208F
:100F800030B4104B0C2202FB003301460020D3E9A1
:100F90000E529863EFF31180202484F31288BFF37C
:100FA0006F8F1C6C04F0C00444F002041C6480F3D6
:100FB0001188BFF36F8F1DB12B46034830BC184713
:100FC00030BC7047240200205444000010B4EFF3FA
:100FD0001182202383F31288BFF36F8F17480168B3
:100FE00041F002040460C80707D482F31188BFF3FC
:100FF0006F8F012010BC00F053BF4FF08041D1F83B
:101000000C04D1F80C14C907EFD5EFF3118083F36A
:101010001288BFF36F8F0A490B6C03F0C00343F0D3
:1010200002030B6480F31188BFF36F8F82F3118882
:10103000BFF36F8F002010BCFFF7A2BF7402002027
:101040002402002010B1012804D07047034B1B6C10
:101050005B0701D1FFF794BF704700BF2402002057
:101060002DE9F0413849BFF35B8F0746012251E873
:10107000003F41E800200028F9D1BFF35B8F33B96E
:10108000324933484B60CB608A6002F032FD7B1EF0
:10109000012B2BD8012F07D14FF08043D3F81C34FC
:1010A00003F00303012B21D003F05AF80546F8B9E9
:1010B000284B1B78E3B14FF080430222C3F808238A
:1010C0000646DFF894804FF08044D4F81824D4F812
:1010D0001834D20315D503F00303012B01D0012FDF
:1010E0000FD155B386F31188BFF36F8FBDE8F08140
:1010F000EFF31186202383F31288BFF36F8F01254E
:10110000DFE7ADB1304602F090FDD4F81835002B82
:10111000DBD1D4F80421002AD7D0C4F80431D4F8A4
:1011200004310123C4F81835C8F88031A360CCE736
:101130000021212003F084F8E7E74FF080430222EA
:10114000C3F80423D2E700BF2002002010020020D1
:10115000400200206303002000E100E008B50748DA
:1011600002F0C2FF38B10648FFF73CFE0448FEF724
:10117000DFFF002008BD6FF01200FBE7B444000061
:10118000851100000A2838B5074D044604D1AB6824
:101190000D215B6828469847AB6803485B68E1B25D
:1011A0009847204638BD00BFB4440000F0B516464D
:1011B0004268107B01F01F0444EA4014106987B0B4
:1011C000002872D0B6F5001F02F1100506D12146A5
:1011D000284602F082FF002007B0F0BD01A80027DA
:1011E000B6F5800F0197476039D1B3F1007F14BF86
:1011F000052304238DF804300023CDE90403039371
:10120000936823FA01F111F001010DF103073ED1BA
:10121000B6F1A07F3BD104F01F03620903F5E07330
:1012200028D0012A47D1254A52F82330DB072ED493
:101230003A462146284601F015F9214B98421CD028
:10124000029703AA2146284600F0CCFF1D4B984286
:101250002ED101222146284601F05CF9BBE7B3F10B
:10126000C06F05D0B3F1007F14BF01230223C1E793
:101270000323BFE74FF0A042D6E73946284601F0E6
:1012800041F9104B9842DBD06FF00B00A4E73A46CF
:101290002146284601F0E6F80A4B9842D1D19DF844
:1012A0000310284601F026F9CBE76FF0850093E79D
:1012B0006FF0150090E751F82330FFDE0003005077
:1012C0000400AD0B0000AD0B420970B5034602D01F
:1012D000012A17D070BD0D4E326951680029F9D02E
:1012E00003F01F0301250C689D400029F2D08A6895
:1012F0002A4002D04B68304698472CB123682146DB
:101300001C46F2E7024EE7E72346F8E79444000064
:101310007444000038B545682B69B3B110352846D0
:1013200001F0DEF8044680B90146284601F0B4F821
:10133000084B98420BD108492246284601F08CF808
:10134000224605210620FFF739FB002038BD6FF04B
:101350000400FBE70000AD0BC91200002DE9F043CB
:10136000466840F20635D006337B87B002EA0505B1
:1013700054BFC2F34010032001F01F07B5F5837F6F
:10138000144647EA43178DF8030044D00FD8062DC2
:1013900018D007D8B5B1022D3FD06FF0150007B0B7
:1013A000BDE8F083B5F5807FF7D101250AE040F272
:1013B0000222954233D0B5F5407F32D0B5F5007F9B
:1013C000EBD1022522032ED5726801238B40C2F88F
:1013D0000835326992BB07F01F037F092BD0012F1C
:1013E00079D13F4A02EB830284F48033D2F80017AC
:1013F000C3F30043C4F3404444EA430421F4E161ED
:1014000044EA800421F0070144EA05230B43C2F8B3
:1014100000370020C3E70725D4E70425D2E70525D8
:10142000D0E70325CEE7630341BF012372688B40F9
:10143000C2F80C35CDE74FF0A042D3E710360DF1DE
:1014400002023946304601F00DF814F4403F804660
:101450000CD13946304602F03EFE224B9845D8D199
:101460009DF80210304601F045F8D2E701AB4FF08D
:10147000000903AA39463046CDE90439CDE901997E
:10148000CDF80C9000F0AEFE164B984285D114F4C6
:10149000003315D09DF803308DF80E3084F480347D
:1014A000C4F300444B4603AA394630468DF80C502D
:1014B0008DF80D4000F052FF0A4B9842CDD06CE7FA
:1014C000CDE9043303AA0DF10303394630460393F3
:1014D00000F088FEF0E703F5E07352F82330FFDEFA
:1014E000000300500000AD0B036803F01F025B090E
:1014F000026004D0012B034818BF002070474FF052
:10150000A0407047000300502DE9F04FDFF86091D4
:10151000DFF860A185B01546834600EB810140F2FB
:10152000FF18594503D1002005B0BDE8F08FDBF866
:1015300000305804C3F3C322C3F3080400F19180C0
:101540001B0E19F80270444508BF4FF0FF34192BE9
:1015500000F28A80DFE803F00D141A1D20261D8892
:101560008888883663888888888888888888667CA0
:101570007F82C5F80C45621C5ED10BF1040BD0E7ED
:10158000C5F81445631CF8D000265FE0C5F808458F
:10159000F1E7C5F81045F5E7661CC5F80845ECD03D
:1015A000002604E0601CC5F80C45E6D0012603A81F
:1015B0000394FFF799FF039B012202FA03F3C0F89B
:1015C0000C3508E0C5F80845002FDBD1631CD4D0EA
:1015D000002632460627DBF80030019303F4004072
:1015E000002818BF002203A8009218BF0126039408
:1015F000FFF77AFF039C019B009A00EB8400C3F382
:10160000412CD0F800473B0243EA8C03134304EA21
:101610000A04234343EA4603C0F80037ADE7C5F8A0
:101620000C45D1E7C5F86045621CDBF80030A4D05A
:10163000C3F30043002BB9D003A80394FFF754FF72
:10164000039B012606FA03F3C0F808353246C2E7C9
:10165000C5F86445E8E7C5F86845E5E7C5F86C45B1
:10166000E2E76FF015005FE76FF085005CE700BF11
:10167000F44B0000F0F8FCFF2DE9F0410446476808
:101680000D4602F06DFD4FF0200888B9264B1B78FF
:1016900073B16426606802F0EAFBF0B9012002F041
:1016A00036FC013EF6D10021212002F0C9FDF0E711
:1016B000EFF31186314688F31288BFF36F8F6068AD
:1016C00002F0D5FBA8B986F31188BFF36F8FEFE75F
:1016D00086F31188BFF36F8FE5E7EFF3118631468C
:1016E00088F31288BFF36F8F606802F0C0FB002898
:1016F000EED0FB691D706368FA691B680020C3F8AF
:1017000044250122C3F84825C3F82001D3F820411D
:10171000C3F85801D3F858019A6081F31188BFF3D8
:101720006F8FBDE8F08100BF63030020F8B5002291
:10173000054601210220FFF741F90220FFF722F9B7
:101740006C680121E06802F0C3FB6B6819682369CB
:10175000C1F82435A27D637D207D1343228B024393
:101760001343C1F86C356E68D6E9004313F00103EA
:1017700042D02F6907F1080002F0D5FB2D4B9842AB
:1017800054D1387A04F10C0204F5907102F0C1FBD7
:10179000387A012707FA00F000F05AFB0823C4F852
:1017A0000035F369C4F844350023C4F84835A76010
:1017B000D4F85831002BFBD00026C4F800656B68C4
:1017C0003146D86802F084FB6D6831462C68E868C1
:1017D00002F07EFB0823C4F800352A7A52B92B6A3E
:1017E000C4F834350123C4F83835C4F81021D4F8CE
:1017F000102123600020F8BD0822C4F80025F269FA
:10180000C4F84425C4F848350123A360D4F8203136
:10181000002BFBD00023C4F82031D4F82031012361
:10182000E3604FF48073C4F80433C1E76FF0040041
:10183000E1E700BF0000AD0B70B5012383400E4A05
:10184000BFF35B8FDC4352E8001F01EA040542E866
:101850000056002EF7D1BFF35B8F4FF480328240E9
:101860000648C0F80823BFF35F8FBFF36F8F0B42AA
:1018700014BF0120002070BDA00200200010014014
:1018800070B40E49D1E90034D01AC31844F10004F1
:1018900022F07F46C1E90034A6F50013B3F5400FEE
:1018A00009D2074B1B681A0A1B069C19054B42F10B
:1018B0000005C3E9004570BC01F066BD4000002092
:1018C000A40200204800002011B3BFF35B8F012366
:1018D000104A834052E800CF4CEA030C42E800C1B2
:1018E0000029F7D1BFF35B8F0B4A4FF4803383405D
:1018F000C2F80433094BBFF35B8F1B68BFF35B8FE8
:10190000C340DB0742BF064B4FF40032C3F800214F
:10191000704700BFA0020020001001409C02002080
:1019200000E100E00D4B1868010A0006BFF35F8F6D
:101930000B4BD3F80435181841F10001B3F5801FA3
:101940000AD2084BD3E90023904271EB030303D280
:1019500010F1807041F10001704700BFA402002027
:1019600000100140480000202DE9F04F85B01646D8
:101970001F469DF840A00446FFF75EFF0190FFF769
:10198000D1FFB04271EB070354D23E4B301A67EBE4
:101990000101984271F100014FD23B4B03EB04135C
:1019A000D3E902239F4208BF96425ED037494FF4E5
:1019B000803804F1500508FA04F8AD00C1F84883F6
:1019C0002046ADB202F096FA26F07F4B05F1804535
:1019D00004F5A87305F58835DC464FF0030902933A
:1019E000029A2CF07F4341F82230C1F84483D1F8A9
:1019F0000435274A6FF00200C01A604420F07F408F
:101A0000904232D9286868B1D1F804350393A3EB2A
:101A10000B0020F07F40B0F5000F26D9204602F0E1
:101A200069FA039BBAF1000F07D109EB030C09F126
:101A30000109D5E7BAF1000F09D06FF0150520466E
:101A40000199FFF741FF284605B0BDE8F08F01235B
:101A5000104ABFF35B8FA34052E8000F184342E8DF
:101A600000010029F8D1BFF35B8F07490E982301CD
:101A700001EB0412C8500F9B5360C2E902670025B6
:101A8000DDE700BF010080003000002000100140B1
:101A9000FDFF7F009C0200207FB51C4C1C4BC4F84E
:101AA0000833C4F848331B4B00254FF0FF304FF08C
:101AB000FF31C4F80855C3E902014FF48033C4F87C
:101AC0000433154B02264FF400320121C4F804639D
:101AD0001120C3F880212A46FEF770FF1120FEF77F
:101AE00051FF0E4A0123A360236013600C4B0D4A83
:101AF0000093CDE9015500232846FFF735FF304616
:101B0000FFF7AEFA284604B070BD00BF00100140D8
:101B100003000F003000002000E100E0A0020020E0
:101B200081180000FFFF7F002DE9F7432F4CD4F808
:101B3000043399070BD5D4F8043143B12C4A002360
:101B4000C4F80431D4F80431136801331360D4F8B5
:101B50000433DA0329D5BFF35B8F264B53E8002FFC
:101B600022F0010143E800100028F7D1BFF35B8F9A
:101B7000D30702D4D4F84031BBB10025C4F840519A
:101B8000D4F84031FFF7CEFEEFF31182202383F328
:101B90001288BFF36F8F184BD3E90267B042B94187
:101BA00006D282F31188BFF36F8F03B0BDE8F083D4
:101BB0004FF0FF384FF0FF39C3E90289D3E9001035
:101BC0001D604FF48033C4F84833C4F84051D4F852
:101BD000403182F31188BFF36F8F0029E5D0009068
:101BE00032463B4628468847DFE700BF00100140E9
:101BF000A40200209C0200203000002030B5431CCD
:101C0000124C85B005D08442A8BF0446012CB8BF51
:101C10000124FFF787FE0E4B0C4DD3E90013401A49
:101C2000B0F5000F10D22218AA4228BF2A46521837
:101C30004FF0000007490091CDE9010043F1000396
:101C4000FFF792FE05B030BD2A46F0E7FFFF7F00A8
:101C5000400000208118000008B5FFF763FE024B2A
:101C60001B68C01A08BD00BF40000020024AD2F81D
:101C70000034002BFBD0704700E0014010B54FF05E
:101C80008053D3F830210D2A55D14FF080410022E6
:101C9000C1F80C21C1F81021C1F83825464AD3F803
:101CA0000404C2F82005D3F80804C2F82405D3F8C8
:101CB0000C04C2F82805D3F81004C2F82C05D3F898
:101CC0001404C2F83005D3F81804C2F83405D3F868
:101CD0001C04C2F84005D3F82004C2F84405D3F828
:101CE0002404C2F84805D3F82804C2F84C05D3F8F8
:101CF0002C04C2F85005D3F83004C2F85405D3F8C8
:101D00003404C2F86005D3F83804C2F86405D3F887
:101D10003C04C2F86805D3F84004C2F86C05D3F857
:101D20004434C2F87035D1F80034DB0709D56FF0C0
:101D30000103C1F800344FF08053D3F830310D2B3C
:101D40000CD14FF08053D3F834313BB14FF0102316
:101D5000D3F808224FF08043C3F858254FF01023E2
:101D6000D3F80022002A03DBD3F80432002B22DA56
:101D7000124901234FF01020C1F804351224FFF757
:101D800075FFC0F80042FFF771FFC0F80442FFF78B
:101D90006DFF0023C1F80435FFF768FFBFF34F8FD5
:101DA0000749084BCA6802F4E0621343CB60BFF3F3
:101DB0004F8F00BFFDE710BD00C0004000E00140B4
:101DC00000ED00E00400FA0530B50468CCB1BFF3C3
:101DD0005B8FB4FA84F3C3F11F03DBB201229A4094
:101DE00024EA020250E8005FA54204D140E8002C3A
:101DF000BCF1000FF6D1BFF35B8FE6D102480B7048
:101E000030BD0248FCE700BF0000AD0B0200AD0B87
:101E100010B50368CB40DB0714D401238B40026864
:101E2000BFF35B8F43EA020150E8004F944204D1B4
:101E300040E8001CBCF1000FF6D1BFF35B8FEED180
:101E4000014810BD0148FCE70000AD0B0400AD0BDC
:101E5000014BC3F80405704700F00140044B1A79A8
:101E600022B9012218601A7102487047024870476F
:101E7000A80200200000AD0B0C00AD0B08B5074B0D
:101E80001B682BB10020FEF78BFD08B9FEF77AFD29
:101E90004FF080430022C3F8182508BDA802002097
:101EA00010B510B1012843D010BD4FF08043D3F8D6
:101EB0001814D3F81824C80321D502F00303012B0A
:101EC00004D013B1002002F030F800234FF080421C
:101ED0000220C2F8183508224FF4827303F18043C0
:101EE0000021196002F180421C6801241460154A27
:101EF00012680AB34FF08043C3F80403D4E7D3F861
:101F00001424D107E1D5D3F81C249207DAD40D4A62
:101F100012681AB10222C3F80423C5E7D3F80421DA
:101F2000002AFBD00022C3F80421D3F80431BBE718
:101F300000224FF48073D1E71A68002AFCD01960A0
:101F40001B68B1E7A8020020F8B54FF08043184F96
:101F5000D3F804430125002604B9F8BDB4FA84F08F
:101F6000C0F11F00830003F580739BB203F180432F
:101F700005FA00F2196892B224EA02040029EBD0B3
:101F80001E601B684FF08043022AC3F808230BD160
:101F9000D3F81814D3F81814890705D1C3F81855C5
:101FA000C3F804239D60D7E73B68C0B29847D3E7E6
:101FB000A8020020036803F01F025B09026004D03E
:101FC000012B034818BF002070474FF0A040704716
:101FD00000030050034A430900F01F00D35C18447B
:101FE000C0B270470A4C000070B50546FFF7F2FF1B
:101FF0000C4C08300E4634F81030DA0508D5C3F31F
:10200000432304EBC302284654F833305268984700
:10201000A3682BB1E26831462846BDE870401847F6
:1020200070BD00BFB002002008B5FFF7D3FF034B1F
:10203000083033F81000400B08BD00BFB00200208C
:1020400008B5FFF7C7FF034B083033F81000C0F3A3
:10205000400008BDB002002008B5FFF7BBFF034BEE
:10206000083033F81000C0F3401008BDB002002063
:10207000034611F0010010B5CCB20DD1A207C4F394
:10208000400012D5094AD2F820055860C2F8200550
:10209000003818BF012008E04FF0A041D1F82025FA
:1020A0001A60C1F82025002AE8D010BD00030050B6
:1020B00010B5FFF78FFF124A083032F81030D905FB
:1020C0001CD5C3F3432123F4F85322F8103002F156
:1020D0000E04002034F8023F13F4807F03D0C3F3D2
:1020E000432399420AD001302A28F3D1002342F831
:1020F00031300448BDE81040FFF78ABE10BD00BF74
:10210000B00200201C03002001F18051F0B501F560
:10211000C2510446114A00208900012506468A4220
:102120000BD10F4BD3F87C2132B10022C3F87C21B4
:10213000D3F87C3140F00040F0BD02F14043A3F5FC
:10214000C2439B0805FA03F31C4204D0176817B179
:102150001660176818430432E1E700BF00610040D1
:1021600000600040F7B506460846FFF733FF194FF9
:1021700000F108050C4637F81530DB0727D5304647
:1021800001F085FF2046FFF767FF40B12046FFF7CB
:102190004BFF316800F5A270002341F82030204643
:1021A000FFF786FF002301A827F815300194FFF7F9
:1021B00001FF019B00EB8300074BD0F80027134081
:1021C00043F00203C0F80037044803B0F0BD0448F0
:1021D000FBE700BFB0020020F0F8FCFF0000AD0BF1
:1021E0000400AD0B2DE9FF41164680460846FFF777
:1021F000F1FE0C463168054609B32046FFF720FF83
:1022000018B12046FFF728FF10BB0023CDE90033AB
:102210008DF80E308DF80F300DF10F020B46204671
:102220000DF10E0101F0DBFE484A05F1080132F81C
:10223000113023F0020343F0010322F811307368D8
:102240005BB320461F785968FFF7FAFE10B1C9B199
:102250003F4825E03D4A05F1080C32F81C3023F0D8
:102260002003DB04DB0C22F81C3059B1032FEFD81C
:102270007168D8F8000049680978A7B901F5A2711A
:1022800040F82170314A05F1080132F8113023F08D
:102290001C0343EA870322F81130B3686BBB2D4857
:1022A00004B0BDE8F08100EB810043EA4133D0F88F
:1022B00010E52EF0030EC0F810E5D8F8000000EB92
:1022C000810E43F02003DEF8100522F81C3020F4C4
:1022D0004F3020F44070CEF810052002DEF8108553
:1022E00000F47C5040EA074040EA0800CEF81005B0
:1022F00001F1380022F81040C4E7D3E90067204616
:10230000FFF7D6FE002ECAD0104CD4E90023964227
:1023100003D19F4201D1002209E00F480DF10F01C6
:10232000FFF752FD0B4B9842BAD19DF80F2044F8AD
:10233000326004EBC20308355F6034F8153043EABD
:10234000422343F4807324F81530A8E7B00200203C
:102350000400AD0B0000AD0B1C0300202DE9F04381
:102360000C4685B08046204611461E46FFF732FED9
:10237000054629B32046FFF763FE18B92046FFF74C
:102380006BFE18BB314F05F1080937F8193013F00F
:102390001C0F02D04B78012B18D001238DF80F3081
:1023A0000023CDE900134A1C8B1C20460DF10F01C0
:1023B00001F015FE37F8193043F0030327F8193000
:1023C000002E41D02046FFF73BFE18B9204805B04B
:1023D000BDE8F08396F800C0D8F800301B4F0CF52C
:1023E000A272002143F8221005F1080237F81210FA
:1023F00021F02001C904C90C27F8121075781DB30B
:10240000D8F80000B67800EB8C002D04D0F8103519
:1024100023F4991323F4F853C0F81035230203F47E
:102420007C5305F440353605D0F810E52B4306F40F
:10243000801641EA4C31334341F0200143EA0E0358
:1024400027F81210C0F810350248C0E7B00200208B
:102450000400AD0B0000AD0B014BC3E90212704745
:10246000B002002010B508461446FFF7F5FD50B144
:102470000846FFF7AFFD054B083033F8103004482D
:102480005B0B237010BD0348FCE700BFB0020020C7
:102490000000AD0B0400AD0B70B50E4C94F88050ED
:1024A0000646A5B95422294604F1100001F040FF68
:1024B0003068C0F87C51D0F87C3140F30730FEF72B
:1024C00061FA0123044884F88030E36670BD034854
:1024D000FCE700BFB00200200000AD0B0C00AD0B0C
:1024E000034B93F88000003818BF0120704700BFED
:1024F000B00200200079024B03EB8000FFF788BC9C
:10250000140000200079024B03EB8000FFF75CBC55
:1025100014000020F7B5054608461646FFF79CFD57
:102520000C462968F0B12046FFF78AFD0746C8B976
:102530002046FFF779FD04B2A40004F580728F50A5
:102540008A5829682144D1F8102542F00102C1F8C7
:1025500010252EB12968012202FA00F3C1F80433D4
:1025600003B0F0BDD1F80433002BA4BF4FF00043FB
:10257000C1F804332046FFF72DFD0F4B083033F828
:102580001030C3F38203042B12D0052B12D001A804
:102590000194FFF70FFD019AD0F81035D34003F0F6
:1025A0000103991C204603B0BDE8F04001F060BD76
:1025B0000321F7E70221F5E7B00200202DE9F04FF3
:1025C000644BD3F80403C0B287B0082140F0004048
:1025D000FFF79AFD051E2BDA0023032104A8CDE99D
:1025E0000433FFF745FDDFF870A10DF110084FF03F
:1025F00000094FF0010B1AF8013B5849DA0803F0C3
:1026000007038A5C22FA03F3DA071CD408F10408F2
:10261000B9F1000F14D000214FF00040FFF774FD16
:10262000032104A8FFF724FD0028DCD125F0004594
:10263000484E4B4F0124002D78D107B0BDE8F08FF4
:102640004FF00109D7E7474B4B440093D8F80010EF
:102650000029DBD0009B91FAA1F11C78B1FA81F13D
:1026600041EA44142046FFF7B5FC3D4B0394083083
:1026700033F81070C80801F0070118F800200BFAB1
:1026800001F122EA0102BB0808F8002003A8019327
:10269000FFF790FC039A019B02F5E072C7F38206F4
:1026A00050F822205B073746C2F3014223D520466B
:1026B0003946D6B2FFF798FC03A80394FFF77AFCDB
:1026C000039B03F5E07350F82330C3F301439E42AC
:1026D00007D10021204601F0CBFC3146204601F015
:1026E000C7FC03A80394FFF765FC039B0BFA03F3F5
:1026F000C0F82035AAE7022A0CD10321204601F0B8
:10270000B7FC06F00503012BEBD139462046FFF755
:102710006BFCE6E702212046019201F0A9FC032EA2
:10272000F3D0019A032ADCD1022EEDE795FAA5F346
:10273000B3FA83F304FA03F225EA020503F5A27261
:10274000383356F8221037F81300C1F30141FFF770
:102750004BFC70E7006000401A4C00008847000006
:10276000B00200201A4C000001460148FFF72CBBC4
:102770001800002038B5EFF31185202383F3128869
:10278000BFF36F8F064B9C6801F0C1FC85F3118885
:10279000BFF36F8F2046BDE83840FEF79BB800BFFF
:1027A0003403002038B50A4B53F82040013053F869
:1027B0002050A54200D838BD606830B1037FDB07E8
:1027C00001D401F0A7FC0834F3E723689847FAE73F
:1027D0008C47000070B52A4B2A4C2B4D012286B045
:1027E00003201A70FFF7DEFF00F046FE0420FFF71B
:1027F000D9FF2646AE4204F1300410D300F0CAFAE5
:10280000204C224EAC4226D300F0D8FAFDF778FCDB
:102810001F4A137B23F00103137306B070BD54F8F5
:102820000C3C059354F8103C049354F8143C039367
:1028300054F8183C029354F81C3C019354F8203C83
:10284000009354E90A2354E90C0100F029F954F8E3
:10285000303C5E65CDE7D4E90A23B3F1FF3F08BF02
:10286000B2F1FF3F05D052EA0301206803D100F026
:1028700061FB3034C6E73146183000F0F5FCF8E76C
:102880006303002054460000544600003942000013
:10289000D000002008B50348034A0021121A01F0B5
:1028A00050FC08BD300000206803002070B50023F4
:1028B00086B00122CDE90423134E144D01930F225B
:1028C000CDE902321249142303FB005506EBC01672
:1028D00004464FF4C07000FB04110E4B00954FF4FA
:1028E000A072304600F0DCF8737B0B4AEE6023F0F8
:1028F000040373734FF4046304FB033313442C7415
:102900006B6006B070BD00BF500000203403002093
:10291000C00B00204B41000080030020BFB5002009
:10292000FFF740FF294B83F30888294C294F63693F
:1029300043F4007363610025E02384F82230E577D7
:1029400025766576A57684F82050636A43F4E02303
:10295000636284F82350FDF78BFFFEF7C1F84FF058
:10296000FF33A362E362FEF781F9FEF7DDF81A4850
:102970001A4C00F0E1F801F0B6FB0120FFF712FF5E
:102980000220FFF70FFF00F04DFA154B15495C616F
:10299000154B05930123CDE903534FF480623B4669
:1029A000CDE901550095204600F07AF8627B064695
:1029B00022F004022046627301F012FC2846FFF761
:1029C00075FF3A4631462046FEF76CF8C00B0020F2
:1029D00000ED00E0D527000050010020D0000020CD
:1029E00034030020400D00201C4C000070B5EFF3B4
:1029F0001186202383F31288BFF36F8F0468A042EF
:102A00001AD0CCB1D4E9003213605A60637B002540
:102A100023F002036373C4E90055A56004F11800B4
:102A200001F04CFC2046A56701F0DAFB314608486E
:102A3000BDE8704000F088B9D0E902329A4218BF70
:102A40000133836086F31188BFF36F8F70BD00BFC1
:102A50006403002013B5EFF31181202484F312885E
:102A6000BFF36F8F846844B1013C846081F31188A7
:102A7000BFF36F8F002002B010BD52EA030406D1ED
:102A800081F31188BFF36F8F6FF00F00F3E7CDE98B
:102A900000230246014800F035F9ECE7640300200A
:102AA0002DE9F043073285B022F007020E461F469B
:102AB0001099017300F158037F32C0E916330446C0
:102AC000002322F03F020421836041733F2A0F98C4
:102AD000A073C4E90633E37306F14009A2F140088C
:102AE00005D883F31188BFF36F8F084602DFB5184E
:102AF00029462046FDF79CFC07300E9B20F007007E
:102B0000A066C4E9189802930D9B01932D1A0C9BA3
:102B100000932A463B4631462046FDF791FF0023AD
:102B20006365044B9B6803B1DB6EE366284605B022
:102B3000BDE8F0833403002040F2011383810023B9
:102B4000C0E91833C366014B986070473403002016
:102B5000094A93686FF00A019967084958674B68FA
:102B600043F080534B60002383F31188BFF36F8FD2
:102B70009368986F704700BF3403002000ED00E0B9
:102B800070B590F90D20437B002A36DBD90634D18D
:102B90001B4C63F07F032246437352F8183FE169F0
:102BA000934207D1C0E900210860E06111E0994239
:102BB000F8D01B68002BF5D090F90E5093F90E60F9
:102BC000B542F4D0AE42F2DD5968C0E90031086088
:102BD0005860A569954200D005B9E568A3685A7B9D
:102BE000D20604D1DA897F2A01D9AA6932B1AB426F
:102BF00002D0284600F096FA656170BD6361FCE77B
:102C00003403002038B590F90D20437B002A01469B
:102C100004DA03F07F03437301F0A8FA0D4D2A464E
:102C2000AB6852F8184F944200D004B9EC688B425C
:102C300007D05A7BD20604D1DA897F2A01D9A2694A
:102C40002AB1A34202D0204600F06CFA23466B6101
:102C500038BD00BF34030020B3F1FF3F08BFB2F11D
:102C6000FF3F03D00249183000F0FEBA704700BFA2
:102C70003942000070B590F90D20437B002A0146CF
:102C800004DA03F07F03437301F070FA4B7B1C4CB2
:102C900063F07F0322464B7352F8183FE06993427A
:102CA00007D1C1E900200160E16111E09842F8D04C
:102CB0001B68002BF5D091F90E5093F90E60B542C8
:102CC000F4D0AE42F2DD5868C1E9003001605960CD
:102CD000A569A368954200D005B9E5688B4207D085
:102CE0005A7BD20604D1DA897F2A01D9AA692AB18E
:102CF000AB4202D0284600F015FA2B46636170BD46
:102D000034030020F8B50E4B0C4611460D4A986866
:102D10001060DDE90667EFF31182202282F312884A
:102D2000BFF36F8F9D68284601F032FA284632467D
:102D30003B46FFF791FF2046BDE8F840FFF708BF8C
:102D4000340300205403002049B9EFF3058030B963
:102D5000054B5A699B689A4201D0FFF7F9BE81F38F
:102D60001188BFF36F8F704734030020034648B9C2
:102D7000EFF3058232B9064A51699268914201D057
:102D8000FFF7E6BE83F31188BFF36F8F704700BF74
:102D900034030020EFF31181202383F31288BFF363
:102DA0006F8F054B9A68D37B013BD37381F31188F6
:102DB000BFF36F8F704700BF3403002070B5EFF38F
:102DC0001186202383F31288BFF36F8F144DAB68F5
:102DD000DA7B0132DA732A4652F8184F944200D057
:102DE00004B9EC685A7BD20604D1DA897F2A01D96A
:102DF000A2692AB1A34202D0204600F093F92346EB
:102E00006B6186F31188BFF36F8FEFF3118020237E
:102E100083F31288BFF36F8FBDE87040FFF7A6BF42
:102E200034030020024B03F11802C3E90622704765
:102E30003403002070B5EFF31186202383F312884A
:102E4000BFF36F8F1B4CA168E0690B68814214BF10
:102E50001A46002249680B605960A368E1692AB9E3
:102E6000154AC3E900210B60E3610CE093F90E0001
:102E700092F90E50A84218D0854216DD5168C3E978
:102E800000210B605360A5690B4B9D4200D005B932
:102E9000E568A3689D4202D0284600F043F96561C9
:102EA0003046BDE87040FFF753BE8A42D8D0126862
:102EB000D5E700BF340300204C030020F8B550EAEA
:102EC000010306460C4603D1FFF7B4FF0020F8BD0E
:102ED000EFF31187202383F31288BFF36F8F124D16
:102EE000124BA8681860FFF78DFEA86810492346AA
:102EF0003246183000F0B8F9AA68537B43F0040357
:102F0000537304463846FFF723FEAB68D3E90A2320
:102F1000B3F1004F08BF002AD8D101F0F7F9201A09
:102F200020EAE070D3E700BF340300205403002000
:102F30003942000038B50446EFF31185202383F3AE
:102F40001288BFF36F8F437B5B070FD5183001F0FA
:102F5000B5F9637B23F0040320466373FFF710FE8B
:102F600029460548BDE83840FFF7EEBE85F31188D5
:102F7000BFF36F8F38BD00BF64030020014B98681A
:102F8000704700BF340300202DE9F8430446077B57
:102F9000EFF31185202383F31288BFF36F8F437BF8
:102FA000190705D585F31188BFF36F8FBDE8F88346
:102FB000D90943F008025DD14273A36813B12046DA
:102FC00001F0DCF804F1180001F078F9A66D04F1C5
:102FD0005808B04511D04FF0000976B1304601F0E5
:102FE000CDF806F1180001F069F9C6F8789030467E
:102FF000FFF7C6FDA66DB045EFD1DFF8C080D8F869
:1030000008309C423ED1EFF30589B9F1000918BFA1
:103010004FF00109D8F81860294A964200D00EB93D
:10302000D8F80C60B34202D0304600F07BF820465E
:10303000C8F8146000F0E2FDB9F1000F02D0214899
:10304000FFF77AFDD8F808309C4231D1EFF30583C1
:1030500073BB227BD20718D42846FFF779FDFB0704
:10306000A4D5002383F31188BFF36F8F0423184680
:1030700002DF9BE703F07F0343F00803437301F093
:1030800075F89AE74FF00009C4E785F31188BFF39C
:103090006F8F83F31188BFF36F8F0423184602DF0D
:1030A000EFF31180202383F31288BFF36F8FD4E7EF
:1030B00085F31188BFF36F8FD1E700BF3403002081
:1030C0004C03002050010020044BC01A044BC010D8
:1030D0005843044B01221A54704700BFD00100200E
:1030E000ABAAAAAA64030020C3897F2B12D80A4B7B
:1030F0001B6863B1094B90F90E201B689A4209DBEB
:10310000437BDB0606D1064BC31A18BF012303F02D
:10311000010070470023FAE71C000020580300203C
:103120005000002070B50E4B0E4C1E7C06EB460383
:1031300004EBC3040546204601F0C0F80A4B002208
:1031400028469A55FFF7D0FF48B1084B08491A683E
:10315000013A2046D317BDE8704000F085B870BD35
:1031600034030020D0010020640300201C00002054
:10317000C930000038B5EFF31185202383F312889E
:10318000BFF36F8F104B114A9C681068A04206D1A4
:10319000FFF7C8FF85F31188BFF36F8F38BD00219B
:1031A0001B7C11600A4AD35C002BF3D02046FFF74A
:1031B0009BFF0028EED0637BDB0602D12046FFF7A1
:1031C00059FD2046E4E700BF3403002054030020EB
:1031D000640300200748084A084908B5121A00F09D
:1031E000B2FF0748074A0849BDE80840121A00F034
:1031F000AABF00BF00000020300000206C4C00007F
:1032000000000020000000206C4C0000024B1868F9
:10321000984208BF0020704720000020034B1B6825
:103220000BB9FEF719BD0020704700BF5C030020FA
:1032300030B570B10B4B5B6898420AD0036843B15C
:10324000D3E90421D0E90445121941EB0501C3E992
:103250000421D0E9003213605A600023C0E9003332
:1032600030BD00BF20000020B3F1FF3F08BFB2F126
:10327000FF3F2DE9F84F0446994615461F467AD080
:103280008160EFF31188202383F31288BFF36F8FDF
:10329000B9F1000FDFF8E4A020DBFFF7BFFFDAE9A8
:1032A0000027013549F100092D1849EBE073C4E905
:1032B0000453AD18064643EB07074FF00109FFF72B
:1032C000A5FFDFF8BCE0DEF804A00346EBB9C4E9D3
:1032D00000EACAF80040CEF8044028E0DAE900121B
:1032E0006FF001035B1A4FF0FF3161EB02025B1BD1
:1032F00062EB0902012B72F10001BCBF0123002225
:10330000C0E904324FF00009D9E7D3E9041CD4E93D
:1033100004208A4270EB0C0B24DA891A5A686CEB91
:103320000000C3E90410C4E9003214605C60FFF7D8
:103330006DFF84420ED1134B1B685BB9B9F1000FCE
:1033400002D1FFF76BFF0646304600F0A0FF0021D8
:10335000FEF754FC88F31188BFF36F8F2846394677
:10336000BDE8F88F521A60EB0C009A45C4E90420BE
:10337000ADD01B68AAE700252F46EFE7E801002043
:10338000200000205C0300202DE9F047EFF31185B9
:10339000202383F31288BFF36F8FDFF8A490DFF848
:1033A000A480C9F80000FFF731FF00260027D9F8F4
:1033B0000030D8E900ECD91750B1D0E90442A3425B
:1033C00071EB020A1CDAE41A62EB0102C0E9044262
:1033D00013EB0E034FF000044CEB01012046C8E94B
:1033E0000031C9F8004000F052FF2146FEF706FC0C
:1033F00085F31188BFF36F8FBDE8F047FFF7BABEC2
:1034000014EB0E024CEBE473C0E90467C8E9002337
:10341000FFF70EFF85F31188BFF36F8F836898471E
:10342000EFF31185202383F31288BFF36F8FD9F850
:1034300000301B1BC9F80030FFF7E8FEB7E700BFFC
:103440005C030020E801002010B5EFF31184202375
:1034500083F31288BFF36F8FFFF7E0FE054A034640
:10346000D2E90001181841EBE37184F31188BFF32E
:103470006F8F10BDE8010020014800F0CBBA00BFFB
:10348000214C00002DE9F04F8DB043680293837802
:1034900015469A07804640F10D8100240E78002ED3
:1034A00000F00A81252E0BD04B1C03930134029BA4
:1034B0004146304698470028C0F2F6800399EDE770
:1034C0004E788B1C252E0393F0D00027B946BB46BF
:1034D000BBF11F0F38D8A6F12003102B0AD8DFE864
:1034E00003F02A0909300909092109090928092DC8
:1034F00009091F00A6F13003092B33D92A2E37D131
:103500001BF0400F55F8043B40F08280002BA7BF12
:103510004BF0200B9946C3F100094BF0280B01E05A
:103520004BF0010B039B13F8016B0393002ECFD1DB
:1035300030E04BF0020B4BF0040BF3E74BF0080BC1
:10354000F0E74BF0100BEDE7BBF17F0F19D8A6F1B8
:103550003003092BD2D81BF0400F03D00A2101FB06
:103560000737DFE70A2101FB09394BF0200BD9E7C8
:103570002E2E06D11BF0400F40F09E804BF0400BEA
:10358000D0E76C2E31D02BD8682E36D06A2E3CD0A6
:103590004C2E3AD0002F46F02003B8BF2BF040024B
:1035A000A3F16501BCBF1FFA82FB0027022901D9E4
:1035B000612B2FD1073525F00705DFF8ACA20835C0
:1035C00007271BF0080F66D00AEB070B56465E452F
:1035D00063D1A4EB0A0A06EB0A02A9EB07096FE123
:1035E000742E9FD07A2E9DD0D4E71BF0800F18BF89
:1035F0004BF4007B4BF0800B94E71BF4807F18BFEB
:103600004BF4007B4BF4807B8CE74BF4207B89E709
:103610001F4687E7A6F16301122900F2F080DFE878
:1036200011F013004F00EE00EE00EE00EE004F0030
:10363000EE00EE00EE00EE00EE00FE00E900EE000F
:10364000EE001B00EE00AF0055F8043B8DF818307B
:1036500001270DF1180AB4E755F804AB834BBAF112
:10366000000F08BF9A461BF0400F14BF39464FF0B9
:10367000FF31504600F064FE0746A2E7029B414638
:103680002020984700280FDB013EB742F6D34C4478
:10369000A41BB14698E74E46F7E716F8010B029BCC
:1036A00041469847002892DA98F8023043F0040324
:1036B00088F802304FF0FF3420460DB0BDE8F08F9F
:1036C0001BF0800F34D01BF4007F2CD0073525F081
:1036D0000705AA4669685AF8080B2BF0100500295F
:1036E000ADB237DA404261EB410145F480650DF13E
:1036F000180B0A235A4600F02FFEA0EB0B03019390
:103700006B0662D5019B25F001019F4289B240F30F
:10371000A180002E00F0998015F0100240F09C80EE
:10372000BB460D4623E0AA465AF8040BC117D4E75E
:10373000AA461BF4807F5AF8041B01D10846F5E71E
:103740001BF4007F15BF48B208B241F3C01141F32A
:10375000C031C2E750EA0103C9D11BF0400FC6D007
:10376000002FC4D12BF0110295B2BB46019740F255
:10377000064115EA01021CBF0BF1010B00222CE0EF
:103780002BF010021FFA82FB0A231BF0800C49D099
:103790001BF400711DBF073525F00705AA46AA4690
:1037A0001ABF5AF8080B69685AF8040B50EA010569
:1037B00045D12BF016051BF0400FADB242D0002FC3
:1037C00040D12BF0170295B2019715F0100248D0A6
:1037D000019B002E42D103F1010B29075AD4EB07BC
:1037E00006D5D9456FDD0199A9EB0B035F18CB46D0
:1037F0005B4649E04BF0100B10237826C5E7782B89
:1038000004D1C6F1780343F01003BEE7029B4146A2
:10381000252098470028FFF647AF023447E60823E3
:103820000026B2E7AA461BF480715AF8040BBDD0FB
:103830001BF400711ABFC0B2614680B2B6E72BF02C
:10384000060295B20DF1180B54E725F01105ADB243
:10385000BB468CE70D46B8E73B460D4603F1020B2D
:10386000BBE7DDF804B082E7634C00005C4C00006D
:10387000CDE904324146029B202098470028FFF6FC
:1038800013AF049B059A01339945F1DCA4EB0B01BE
:10389000CC189B460AB3029B41463020984700282B
:1038A000FFF602AF8EB901342744019B391B9942C0
:1038B00024DC1D465DBB019AA9EB0B092244554649
:1038C0001446914435E0019F92E702344146304668
:1038D000029B98470028E7DAE6E640F206410D42EF
:1038E000E2D015F0020F14BF2B20202015F4806FBA
:1038F00004F10104414618BF2D20E9E7029B41462F
:1039000030209847002804F10104CEDACCE606AB5B
:10391000013D4146585D029B98470028CADAC3E63C
:10392000029B414620209847002804F10104FFF63D
:10393000BBAEA9EB0403002BF2DCBFE5704700EB44
:10394000C100408840087047F8B50346FFF7F7FF0D
:10395000B0FA80F0C0F11F0003EB800CCA00DCF865
:103960001060171D0C4606328DB256B9012101FABE
:1039700000F0D9680143D960CCF81040DD539D5266
:10398000F8BDF1000431585AD85303EBC0009E52E1
:10399000C5805D52F4E7043A2DE9F041CC1D114495
:1039A00024F0070421F007010E1BF708B7FA87F28D
:1039B000C2F12405AD004FF000080735C2F1200226
:1039C000ED0804604146A760C4F80C80920004F141
:1039D000100000F0ADFC6B0043F00103638004EBCA
:1039E000C5027B1B5900A4F800805180A21924F85D
:1039F0003550A2F80280A35304EBC70329465A8826
:103A000042F001025A802046BDE8F041FFF79CBF1A
:103A1000002070470FB407B504A951F8040B0191B9
:103A2000FCF78CFB03B05DF804EB04B07047038B2C
:103A300013F0070305D10368002B0CBF00200320FF
:103A40007047022B05D1408BB0FA80F0400980000E
:103A50007047012B05D10368002B0CBF0020052007
:103A600070470020704710B50C4600B111B96FF0D7
:103A7000150010BD081D00F093F80028F9D1A368C7
:103A8000032BF6D9F3E72DE9F0410D460746194619
:103A9000281D90461E4600F094F8044638B133467F
:103AA000424629463846A446BDE8F0416047BDE895
:103AB000F08110B4EFF31182202484F31288BFF355
:103AC0006F8F416110BC0121FCF76ABB38B50C4611
:103AD000054658B151B10B6843B14B6833B11C2254
:103AE000002100F025FC2C61002038BD6FF015008E
:103AF000FBE770B505460E46FFF7B5FF041E14DB65
:103B0000EFF31182202383F31288BFF36F8F6B8B47
:103B10002C8B4FF6FF718B4204F0070407D182F320
:103B20001188BFF36F8F6FF00A04204670BD022C1E
:103B30000CD101336B8382F31188BFF36F8F0023A5
:103B4000224631462846FFF79EFFEEE7062C14D8A2
:103B5000DFE804F004131313041A04000023336095
:103B60006B683BB9C5E90066ACB902212846FCF791
:103B700017FBDAE71E606E60F6E782F31188BFF389
:103B80006F8F6FF00404D0E782F31188BFF36F8F5B
:103B90006FF08504C9E782F31188BFF36F8FC4E724
:103BA000034658B1426802F00302012A03D0032AF7
:103BB00004D1026812B10020986070476FF01500C0
:103BC00070474268816002F00302032A4FF000024E
:103BD00003460CBF006810465A60704770470146A4
:103BE0000068FCF7F1BB08B5FCF71EFCBDE8084017
:103BF000FCF73EBC00210120FCF7E6BB6FF085001E
:103C0000704761B662B680F31188BFF36F8F70475B
:103C100072B6002383F31188BFF36F8FBFF34F8F0A
:103C200030BF62B6BFF36F8F704772B6002383F365
:103C30001188BFF36F8FBFF34F8F20BF80F31188C0
:103C4000BFF36F8F62B67047202809D9B0F1004FDB
:103C500008D80138B0FA80F0C0F11F00400070476A
:103C6000082070473E20704708B5FDF7B3F80020E4
:103C700008BD0369C9B20C2201FB0233186C00F0C5
:103C80000700704770B5C9B20369EFF311852024AE
:103C900084F31288BFF36F8F0C2606FB0134246C6B
:103CA00014F0C00408D0A24206D085F31188BFF3F7
:103CB0006F8F4FF0FF3070BD06FB013301221A6495
:103CC00085F31188BFF36F8F436803EBC1035B6813
:103CD00098470020EFE78022FFF7D4BFF8B5069F92
:103CE0000469C9B2EFF31186202585F31288BFF36A
:103CF0006F8F0C2505FB0144256C05F0070CBCF10A
:103D0000010F0CD1276486F31188BFF36F8FC4E9CC
:103D10000E23436853F8313098470020F8BD05F072
:103D2000C005AF4286F31188BFF36F8F0CBF6FF0F1
:103D300077004FF0FF30F1E713B580240094FFF7D0
:103D4000CDFF02B010BD10B40069CBB21C2403FB40
:103D50000400002110BC10470020FEF7A1B800208D
:103D600000F03BB91046FEF741BE43685B68D3F8EC
:103D700010350B600020704743685B6802EA010061
:103D800021EA0201C3F80805C3F80C1500207047AA
:103D900043685B680020C3F80815704743685B6898
:103DA0000020C3F80C15704743685A68D2F80435F0
:103DB00021EA03000B40C2F80805C2F80C350020C8
:103DC000704710B503695868F8B1884219D19C68EA
:103DD00008685860A14200D19860002008602AB1AC
:103DE0005A680A609A68596002B99960002010E028
:103DF000814206D10868206098688142EDD19C60BC
:103E0000EBE7044600680028F2D1002AE8D16FF001
:103E1000150010BD30B543681360057A446804EBA3
:103E2000C504A34202D36FF0010030BD5C798C421F
:103E300001D00833F0E70020F7E743681B68D3F8A8
:103E40008004C3F88004704742681368D3F81001F7
:103E500050B1126A002012780A70C3F81001D3F82A
:103E6000102101221A6070474FF0FF30704702683E
:103E70000346D2F8580140B95B68DB0706D4D2F894
:103E80002001003818BF01207047012070474368A7
:103E90001B68D3F80423D20517D5D3F82021A2B18B
:103EA000EFF31182202181F31288BFF36F8FD3F8D3
:103EB000201131B10021C3F82011D3F820110121C4
:103EC000D96082F31188BFF36F8FD3F858317047F0
:103ED00013B501AA0446FFF79DFF002805DB019BEF
:103EE000226819791868FDF70FFB02B010BD6FF05A
:103EF0008500704700F150039B009BB203F18043A3
:103F000003F5883300221A601B687047004700F0F1
:103F1000E6B8C00000F1804000F5F830C0F8101598
:103F2000C0F814257047FEF71FBCF7B50646F8B178
:103F300001281BD104224FF4807301464FF08040CA
:103F400003440244C0F808130025012111601D60DC
:103F50008E421B688DF8071008BF0DF1070542F26D
:103F600010744FF0804746B1012E23D003B0F0BD4E
:103F70000C224FF482730221E0E7D7F8183403F4DF
:103F800080333DB9002BF1D00120FFF7C0FF013C89
:103F9000F3D1EBE7D7F8182402F003022A60002BD4
:103FA000E4D09DF807000128E0D1FFF7B0FF013C05
:103FB000D9D1DBE7D7F80C3403F480333DB9002BBB
:103FC000D4D00120FFF7A3FF013CF3D1CEE7D7F80F
:103FD0000C2402F001022A70E1E7FFF7A6BFF7B553
:103FE000019001A8DDE9084716461D46FDF7E2FFEE
:103FF000019BB6F1000C18BF4FF0010C00EB8300E1
:104000000B1E18BF0123002D43EA4C0314BF4FF0D1
:104010000C0C4FF0000C002C43EA0C0314BF4FF4BF
:10402000E06C4FF0000C002F43EA0C03D0F800279F
:1040300014BF4FF4403C4FF0000C43EA0C0322EA5B
:10404000030301B109780EB13678760019430DB13A
:104050002D78AD0031430CB12478240229430FB1EF
:104060003F783F040C433C43C0F8004703B0F0BD29
:104070001FB50DF10F03019300238DF80F1000936E
:104080001A461946FFF7ABFF05B05DF804FB38B5DB
:10409000054608460C46FDF7DFFFB0B10846FDF7C0
:1040A000CFFF90B90846FDF7BFFF2A680123834080
:1040B000C2F808332A6803B202EB8303D3F8102551
:1040C00022F00302C3F8102538BD20460021BDE8C8
:1040D0003840FFF7CDBFFEF745B8FFF7D8BF08B1AE
:1040E000FCF7AABE7047704740B1C368587810F01B
:1040F00001001EBF1878B0FA80F040097047EFF356
:104100001183202383F31288BFF36F8FFEE708B576
:10411000FFF7F5FF10B54369044633B90020E268A4
:10412000537843F00103537010BD98470028F5D031
:104130000028B8BF4042E368FF28A8BFFF201870DE
:10414000EDE700F0F5B800F0E5B808B52024EFF38E
:10415000118384F31288BFF36F8FFFF759FDF6E7E1
:10416000EFF30580003818BF01207047D0E9003216
:1041700013605A600023C0E90033704708B5FFF7A9
:10418000F5FF437B23F0020343730023836008BDE4
:1041900038B504460D46FEF735FD637B43F0020358
:1041A0006373E5B1A5602B689D4209D16B68C4E9D2
:1041B00000531C606C6012E06A689A42F6D01B687B
:1041C000002BF3D094F90E2093F90E108A42F3D00D
:1041D0009142F1DD5A68C4E9003214605C6038BD78
:1041E00010B5EFF31184202383F31288BFF36F8F90
:1041F000FEF7C6FC84F31188BFF36F8F10BD10B5B6
:104200000146EFF31184202383F31288BFF36F8FED
:10421000437B13F0280F0AD183680BB1FFF7AEFF81
:104220004B7B23F004034B730846FEF7A9FC84F391
:104230001188BFF36F8F10BD01211838FFF7DFBF62
:1042400038B504460D46FEF739FEB5F1FF3F08BF0D
:10425000B4F1FF3F0246204618D000204FF47A7494
:1042600047F6FF730146C2FB0431B3F5004F71F10D
:1042700000020BD36FF400429A4243F6FF728A4168
:1042800026BFD80B40EA41406FF0004038BD08B56A
:104290000246FEF7BBFF70B1D0E904319B1A61EB17
:1042A000E272B3F1004F72F1000104DA002AACBFF0
:1042B0001846002008BD6FF00040FBE738B5024605
:1042C000EFF31185202383F31288BFF36F8F036808
:1042D000CBB1FEF79BFF04461046FEF7A9FF002274
:1042E0004FF000438442C0E9042306D1FEF796FF55
:1042F000FFF7CDFF0021FDF781FC002085F3118839
:10430000BFF36F8F38BD6FF01500F7E708B5FFF703
:104310009BF808BD0A44914200F1FF3300D1704779
:1043200010B511F8014B03F8014F9142F9D110BDBE
:1043300002440346934200D1704703F8011BF9E79A
:1043400010B5024601448A42134603D01C7801325C
:10435000002CF8D1181A10BDF0B5C3F13707044688
:10436000FFB203F01F031046082BE6B233D0102B28
:104370003ED06508A40844EA817445EAC1752D1948
:104380004FEA910242EB5102290941EA02716D188C
:1043900042EB1212290A41EA02616D1842EB122225
:1043A000290C41EA02416D1842EB1242AD1842F16C
:1043B0000002EC0844EA4274D10804EB8402A6EB44
:1043C0004205EDB2092D0CD90134A5F10A0541F1E0
:1043D0000001EDB212E0E40844EA417406F007057A
:1043E000C908303554EA010200F8015BBCD1F0BDC8
:1043F000240944EA017406F00F050909092D84BF58
:10440000ED19EDB2EDE700000148006870470000CB
:04441000F001002097
:10441400210E0000000000000000000054440000D1
:1044240000000000944400000000000074440000F8
:1044340000000000B44400005D1100000000000012
:10444400991A000000000000FD0D000000000000AB
:10445400C94B0000E4460000784600002800002014
:1044640024020020C10E0000000000000000000033
:10447400D84B0000F4460000544600002A000020F7
:104484007802002015130000000000000000000066
:10449400E64B00000C470000544600002C000020AE
:1044A400840200201513000000000000000000003A
:1044B400FC4B000024470000944600002E0000201E
:1044C400900200202D170000EF3E000000000000C5
:1044D400491F00000D3F000000000000F53B0000F4
:1044E400B44400008F3E000000000000F53B0000D3
:1044F40000000000F53B000000000000F53B000058
:10450400BD2500000D3F000000000000F53B000049
:1045140000000000F53B000000000000F53B000037
:1045240000000000F53B000000000000F53B000027
:1045340000000000F53B000000000000F53B000017
:1045440000000000F53B000000000000F53B000007
:1045540000000000F53B000000000000291B0000E3
:1045640000000000F53B000000000000F53B0000E7
:1045740000000000F53B000000000000F53B0000D7
:1045840000000000F53B000000000000F53B0000C7
:1045940000000000F53B000000000000F53B0000B7
:1045A40000000000F53B000000000000F53B0000A7
:1045B40000000000F53B000000000000F53B000097
:1045C40000000000F53B000000000000F53B000087
:1045D40000000000F53B000000000000F53B000077
:1045E40000000000F53B000000000000F53B000067
:1045F40000000000F53B000000000000F53B000057
:1046040000000000F53B000000000000F53B000046
:1046140000000000F53B000000000000F53B000036
:1046240000000000F53B000000000000F53B000026
:1046340000000000F53B000000000000F53B000016
:1046440000000000F53B000000000000F53B000006
:104654005D1300006B3D0000793D0000913D0000BA
:104664009D3D0000A93D0000AD110000C33D0000C8
:044674000000000042
:10467800190F0000D73C0000393D00000000000081
:0C468800733C0000000000000000000077
:0C469400493E0000791600003B3E00008B
:1046A0000338FDD870470000CDAB34120000002065
:1046B0000000000000000B0602000000C0460000E1
:1046C00000000000BA4B0000240002060000002099
:1046D000C24B000020000B117D0E00004D0E0000AB
:1046E00000000000CD0F00004D0F0000593D0000FC
:1046F0005F3D0000FF0300000003005000000000C9
:10470000010000000060004000000000FFFFFFFF0C
:1047100000000050000000000000000000600040A9
:104720000000000000200040010000000000000028
:10473000484700000000D601000000000000000013
:104740006203002061030020002000405447000065
:1047500002000000744700000400000064470000ED
:1047600004010000068000000880000105800002AE
:104770000780000306000000050000020806000193
:1047800007060003080000000300000014440000B6
:1047900014440000444400004C4400005444000011
:1047A00054440000626F6F74206F6B0A0072302FE8
:1047B00061313A2020307825303878202072312F2E
:1047C00061323A2020307825303878202072322F1C
:1047D00061333A20203078253038780A0072332F40
:1047E00061343A2020307825303878207231322FE9
:1047F00069703A2020307825303878207231342F93
:104800006C723A20203078253038780A0020787091
:1048100073723A20203078253038780A0046617566
:104820006C74696E6720696E737472756374696FF6
:104830006E206164647265737320287231352F7045
:1048400063293A203078253038780A00556E68613F
:104850006E646C6564204952516E3A2025640A00EA
:104860002A2A2A2A2A204D5055204641554C5420A8
:104870002A2A2A2A2A0A002020537461636B696E4F
:1048800067206572726F722028636F6E746578742A
:104890002061726561206D69676874206265206EB1
:1048A0006F742076616C6964290A002020556E734C
:1048B0007461636B696E67206572726F720A0020A3
:1048C0002044617461204163636573732056696F8E
:1048D0006C6174696F6E0A0020204D4D4641522074
:1048E000416464726573733A20307825780A002039
:1048F00020496E737472756374696F6E20416363CF
:104900006573732056696F6C6174696F6E0A00205D
:1049100020466C6F6174696E672D706F696E7420CC
:104920006C617A7920737461746520707265736547
:1049300072766174696F6E206572726F720A002AF6
:104940002A2A2A2A205553414745204641554C548E
:10495000202A2A2A2A2A0A002020446976697369B3
:104960006F6E206279207A65726F0A002020556E82
:10497000616C69676E6564206D656D6F7279206129
:1049800063636573730A0020204E6F20636F70723B
:104990006F636573736F7220696E7374727563747D
:1049A000696F6E730A002020496C6C6567616C202A
:1049B0006C6F6164206F66204558435F52455455C3
:1049C000524E20696E746F2050430A002020496CBB
:1049D0006C6567616C20757365206F66207468650F
:1049E00020455053520A002020417474656D707444
:1049F00020746F206578656375746520756E6465D5
:104A000066696E656420696E737472756374696F2C
:104A10006E0A002A2A2A2A2A204255532046415546
:104A20004C54202A2A2A2A2A0A002020537461631F
:104A30006B696E67206572726F720A002020507277
:104A400065636973652064617461206275732065B4
:104A500072726F720A002020424641522041646403
:104A6000726573733A20307825780A002020496DEA
:104A70007072656369736520646174612062757327
:104A8000206572726F720A002020496E737472750D
:104A90006374696F6E20627573206572726F720A3B
:104AA000005265736572766564204578636570743D
:104AB000696F6E20280053707572696F7573206975
:104AC0006E746572727570742028495251200053BB
:104AD0005053454C20696E20746872656164206D86
:104AE0006F646520646F6573206E6F7420696E64F7
:104AF0006963617465205053500A002A2A2A2A2AC1
:104B00002048415244204641554C54202A2A2A2A02
:104B10002A0A002020427573206661756C74206F2C
:104B20006E20766563746F72207461626C652072AA
:104B30006561640A002020446562756720657665BA
:104B40006E740A0020204661756C74206573636181
:104B50006C6174696F6E20287365652062656C6F87
:104B600077290A00415243485F4558434550542035
:104B70007769746820726561736F6E2025780A0A00
:104B8000002A2A2A2A2A204465627567206D6F6EE2
:104B900069746F7220657863657074696F6E202A1E
:104BA0002A2A2A2A0A002A2A2A2A2A202573202584
:104BB0006429202A2A2A2A2A0A00464C4153485F9F
:104BC00030005352414D5F3000636C6F636B403473
:104BD00030303030303030006770696F4035303001
:104BE0003030333030006770696F403530303030EE
:104BF000303030000001020304050607756172744D
:104C00004034303030323030300000202A2A2A2A16
:104C10002A2A2A2A2A2A2A2A2A2A00016D61696E4A
:104C2000002A2A2A20426F6F74696E67205A6570C5
:104C3000687972204F53206275696C642076342E37
:104C4000322E302D323834362D67323637343639FD
:104C5000623530336462202A2A2A0A00286E756C75
:0C4C60006C29002A666C6F61742A000049
:104C6C00113A000000000000693C00000000000048
:104C7C0000000000FF000000FFFF0F00900200008A
:084C8C002000002020000020A0
:084C9400000000000000000018
:044C9C0015E015E02A
:040000030000089D54
:00000001FF
